:100000000C943D0E0C946E0E0C946E0E0C946E0EB1
:100010000C946E0E0C946E0E0C946E0E0C946E0E70
:100020000C946E0E0C946E0E0C946E0E0C946F3637
:100030000C946E0E0C946E0E0C946E0E0C946E0E50
:100040000C946E0E0C94934C0C946E0E0C946E0EDD
:100050000C946E0E0C946E0E0C94CD570C94C255ED
:100060000C946E0E0C94DF310C946E0E0C946E0E8C
:100070000C946E0E0C946E0E0C946E0E0C946E0E10
:100080000C946B790C946E0E0C946E0E0C946E0E98
:100090000C946E0E0C946E0E0C946E0E0C946E0EF0
:1000A0000C946E0E0C946E0E0C943E790C946E0EA5
:1000B0000C946E0E0C946E0E0C946E0E0C941179C2
:1000C0000C946E0E0C946E0E0C946E0E0C946E0EC0
:1000D0000C946E0E0C946E0E0C946E0E0C946E0EB0
:1000E0000C946E0E8E539153805384538A53C8538D
:1000F000955399539F53A353A753AD53B153B5533E
:10010000C853BB53BF53C353A854AD54B254BC548B
:10011000C6543F55D054D854E054EA54F454FE54D5
:100120000D5517553F5521552B5535555358585892
:1001300082588758675873584058084AD73B3BCE77
:10014000016E84BCBFFDC12F3D6C74319ABD5683D6
:100150003DDA3D00C77F11BED9E4BB4C3E916BAA8E
:10016000AABE000000803F05A84CCDB2D44EB938DD
:1001700036A9020C50B9918688083CA6AAAA2ABEC4
:10018000000000803F004E414E494E495459494EAF
:1001900046CDCCCC3D0AD7233C17B7D13877CC2BF2
:1001A000329595E6241FB14F0A000020410000C897
:1001B0004200401C4620BCBE4CCA1B0E5AAEC59D18
:1001C00074434F4D4D554E49434154494F4E0044A1
:1001D000525952554E004552524F525300494E46C5
:1001E0004F004543484F0047322F47332062616438
:1001F00020706172616D65746572730A00206F66AC
:1002000020004D424C2047323920706F696E7420B7
:100210000059206F7574206F662072616E676520CB
:1002200028312D33292E0A0058206F7574206F66EF
:100230002072616E67652028312D33292E0A004D0A
:100240006573682070726F62696E6720646F6E6597
:100250002E0A005374617274206D65736820707289
:100260006F62696E6720776974682022473239208F
:100270005331222066697273742E0A004732380A9D
:100280004732392053320053746174653A20004D6F
:1002900065736820626564206C6576656C696E675D
:1002A00020686173206E6F20646174612E0A0053B0
:1002B000206F7574206F662072616E67652028302C
:1002C0002D35292E0A004D65736820706F696E7494
:1002D0002063616E6E6F74206265207265736F6C4F
:1002E0007665640A002569730025696D20256973A8
:1002F000002569682025696D2025697300256964DA
:10030000202569682025696D202569730025697994
:1003100020256964202569682025696D2025697379
:10032000005072696E742074696D653A20005072D5
:100330006F7465637465642050696E0A00E201DDC4
:1003400001D601CF01C1016F6666004445425547A1
:100350003A004B494C4C45442E20004D313133205E
:1003600053006F6B0020573A0020573A005448451D
:10037000524D414C5F50524F54454354494F4E00EB
:100380004155544F5245504F52545F53445F53545C
:100390004154555300454D455247454E43595F50D2
:1003A000415253455200434153455F4C49474854DD
:1003B0005F4252494748544E45535300544F4747B4
:1003C0004C455F4C494748545300534F465457419E
:1003D00052455F504F574552004255494C445F507B
:1003E000455243454E54004C4556454C494E475F97
:1003F00044415441005A5F50524F424500415554C8
:100400004F4C4556454C005052494E545F4A4F425E
:100410000050524F4752455353004155544F524597
:10042000504F52545F54454D5000564F4C554D451A
:100430005452494300454550524F4D00534552498F
:10044000414C5F584F4E5F584F4646004649524D0B
:10045000574152455F4E414D453A4D61726C696E50
:10046000206275676669782D312E312E78202847F5
:1004700069746875622920534F555243455F434F55
:1004800044455F55524C3A68747470733A2F2F6725
:1004900069746875622E636F6D2F4D61726C696E41
:1004A0004669726D776172652F4D61726C696E205D
:1004B00050524F544F434F4C5F56455253494F4E45
:1004C0003A312E30204D414348494E455F545950F2
:1004D000453A4A756C696120455854525544455215
:1004E0005F434F554E543A3220555549443A63655F
:1004F0006465326132662D343161322D34373438DF
:100500002D396231322D63353563363266333637F5
:1005100066660A002F2F20007A5F6D61783A20000E
:10052000795F6D61783A2000785F6D696E3A2000DE
:100530005265706F7274696E6720656E6473746F54
:1005400070207374617475730A0020540020520087
:10055000416363656C65726174696F6E3A20500027
:100560005741524E494E4721204C6F77205A204A1E
:1005700065726B206D6179206C65616420746F20F9
:10058000756E77616E746564207061757365732E26
:100590000A00546F6F206661722066726F6D207260
:1005A00065666572656E636520706F696E740A00BA
:1005B000205A00205900580020204D61783A200030
:1005C000205A00205900580020204D696E3A200022
:1005D0004F6E20004F666600536F667420656E6430
:1005E00073746F70733A2000486F74656E64206F87
:1005F0006666736574733A0020466C6F773A200024
:10060000000136372603FFFFFF353C3D38FF0FFF63
:10061000FF312E303EFF13FFFFFF28FF0C0809FFBC
:10062000FFFF1A1C18FFFF2A24221EFFFF2C08447C
:100630000AFF4307FF45206F7574206F66207261C3
:100640006E67650A00536572766F20003A200020BD
:10065000536572766F200020643A0020693A0020CA
:10066000703A00496E76616C6964206578747275C1
:100670006465720A0043290A0061626C656420287F
:100680006D696E2074656D702000436F6C64206529
:10069000787472756465732061726520004E6F20F6
:1006A00063617365206C696768740A004D657368DF
:1006B00020706F696E742063616E6E6F7420626566
:1006C000207265736F6C7665640A004D3432312098
:1006D000696E636F727265637420706172616D65BB
:1006E0007465722075736167650A00454550524F05
:1006F0004D204F4B0A00656E7175657565696E67B3
:100700002022004C696E65204E756D62657220690D
:1007100073206E6F74204C617374204C696E652079
:100720004E756D6265722B312C204C617374204CB8
:10073000696E653A20004B494C4C45442E200050D0
:1007400072696E7465722073746F70706564206472
:10075000756520746F206572726F72732E20466902
:100760007820746865206572726F7220616E6420F3
:10077000757365204D39393920746F207265737433
:100780006172742E202854656D7065726174757283
:10079000652069732072657365742E20536574201B
:1007A0006974206166746572207265737461727415
:1007B000696E67290A004E6F20436865636B737525
:1007C0006D2077697468206C696E65206E756D6246
:1007D00065722C204C617374204C696E653A200060
:1007E000636865636B73756D206D69736D617463A8
:1007F000682C204C617374204C696E653A20004D62
:100800003131300020496E76616C696420657874FE
:100810007275646572200000000000000000000096
:100820000000000000D2430000CD430080CA4320F6
:100830006E6F7420656E74657265642E0A00205AAE
:100840003A0020423A0020436F756E7420413A000E
:1008500020453A00205A3A0020593A00583A004BB5
:10086000494C4C45442E2000202D20496E76616C69
:100870006964206578747275646572206E756D6246
:10088000657220210A002020506C616E6E657242F4
:10089000756666657242797465733A200020467207
:1008A0006565204D656D6F72793A2000436F6D70FC
:1008B000696C65643A204A756E20323220323031DC
:1008C000380A00207C20417574686F723A2056699E
:1008D0006A6179205261676861760A003230313886
:1008E0002D30312D323000204C61737420557064EE
:1008F000617465643A20006275676669782D312EEF
:10090000312E780A004D61726C696E0020536F665B
:1009100074776172652052657365740A00205761AF
:10092000746368646F672052657365740A002042BF
:10093000726F776E206F75742052657365740A004C
:100940002045787465726E616C2052657365740A17
:1009500000506F77657255700A0073746172740A83
:1009600000205A3A0020593A0020583A00656E6437
:1009700073746F7073206869743A200052657365F0
:100980006E643A200020746F6F206C6F6E67206574
:100990007874727573696F6E2070726576656E74A7
:1009A00065640A0020636F6C6420657874727573E7
:1009B000696F6E2070726576656E7465640A006298
:1009C0007573793A2070617573656420666F722063
:1009D000696E7075740A00627573793A207061757A
:1009E00073656420666F7220757365720A006275A4
:1009F00073793A2070726F63657373696E670A006A
:100A00004B494C4C45442E20004B494C4C206361D3
:100A10007573656420627920746F6F206D756368EB
:100A200020696E6163746976652074696D65202D37
:100A30002063757272656E7420636F6D6D616E6494
:100A40003A20005072696E7465722068616C74653A
:100A5000642E206B696C6C28292063616C6C656462
:100A6000210A002F2F616374696F6E3A706175738C
:100A7000650A00000000000000CD430080CA43006A
:100A8000004842000048420000C8410000000057F2
:100A900061726E696E673A20486F6D696E672042B9
:100AA000756D702044697669736F72203C20310A3D
:100AB000000202040000A0400000A040000000402E
:100AC0000000D2430000CD430080CA43FF01014132
:100AD00063746976652045787472756465723A202E
:100AE000006F6B004572726F722077726974696E65
:100AF0006720746F20454550524F4D210A004545EF
:100B000050524F4D206461746173697A652065723B
:100B1000726F722E0A00290A002062797465733B95
:100B200020637263200053657474696E6773205389
:100B3000746F726564202800290A00206279746548
:100B4000733B2063726320002073746F72656420AE
:100B500073657474696E6773207265747269657603
:100B60006564202800202863616C63756C6174657E
:100B70006429210A0020213D2000454550524F4D57
:100B800020435243206D69736D61746368202D208A
:100B90002873746F7265642920002053697A653A5E
:100BA0002000496E6465783A2000204D61726C69BE
:100BB0006E3D563534290A0028454550524F4D3D6B
:100BC00000454550524F4D2076657273696F6E2017
:100BD0006D69736D61746368200024F4D43050C370
:100BE0008E20C2A24017828B7011127A910D816CF7
:100BF000D90AA861E108C7586607615143061E4B30
:100C00005D05C145A7041A411104093D98037139D6
:100C100031034036DB0265339102D4305402802E1A
:100C20001D02632CEE01752AC501B028A001102712
:100C300081018F2564012B244B01E0223401AC217A
:100C40001F018D200D01801FFC00841EED00971DEB
:100C5000DF00B81CD200E61BC600201BBC00641AD3
:100C6000B200B219A8000A19A0006A189900D11799
:100C7000910040178B00B516840031167E00B31525
:100C800079003A157300C7146F0058146A00EE1308
:100C900066008813630025135E00C7125B006C12A8
:100CA000570015125400C111510070114F0021114D
:100CB0004B00D61049008D1047004610440002102A
:100CC0004200C00F4000800F3E00420F3C00060F64
:100CD0003B00CB0E3800930E37005C0E3500270E1C
:100CE0003400F30D3200C10D3100900D3000600D65
:100CF0002E00320D2D00050D2C00D90C2B00AE0C52
:100D00002900850C29005C0C2700350C27000E0CEF
:100D10002600E80B2400C40B2400A00B23007D0B4D
:100D200023005A0B2100390B2100180B2000F80A70
:100D30001F00D90A1E00BB0A1E009D0A1D00800A62
:100D40001D00630A1C00470A1B002C0A1B00110A25
:100D50001A00F7091A00DD091900C4091900AB09C6
:100D60001900920917007B091800630917004C0944
:100D7000160036091600200916000A091500F508A4
:100D80001500E0081400CC081400B8081400A408EA
:100D90001400900813007D0812006B081300580817
:100DA000120046081200340811002308110012082E
:100DB000110001081100F0071000E0071000D00733
:100DC0001000C0071000B0070F00A1071000910726
:100DD0000E0083070F0074070F0065070E0057070A
:100DE0000E0049070E003B070D002E070E002007DE
:100DF0000D0013070D0006070D00F9060C00ED06A7
:100E00000D00E0060C00D4060C00C8060C00BC0661
:100E10000C00B0060C00A4060B0099060C008D0611
:100E20000B0082060B0077060B006C060B006106B8
:100E30000A0057060B004C060A0042060A00380654
:100E40000A002E060A0024060A001A060A001006E6
:100E5000090007060A00FD050900F4050900EB0575
:100E60000900E2050900D9050900D0050900C705F8
:100E70000900BE050900B5050800AD050800A50577
:100E800009009C050800940508008C0508008405ED
:100E900008007C050800740508006C05070065055E
:100EA00008005D050700560508004E0507004705C8
:100EB00007004005080038050700310507002A052E
:100EC0000700230507001C050600160507000F058F
:100ED00007000805060002050700FB040600F504EC
:100EE0000700EE040600E8040600E2040700DB0445
:100EF0000600D5040600CF040600C9040600C3049A
:100F00000600BD040600B7040600B1040500AC04E9
:100F10000600A6040600A00405009B040600950434
:100F20000500900406008A0405008504050080047D
:100F300006007A04050075040500700405006B04C2
:100F4000050066040500610405005C040500570403
:100F50000500520405004D04050048040500430443
:100F600005003E0404003A04050035040500300481
:100F700004002C04050027040400230405001E04BB
:100F800004001A04040016040500110404000D04F2
:100F90000400090405000404040000040400FC0328
:100FA0000400F8030400F4030400F0030400EC035D
:100FB0000400E8030400E4030400E0030400DC038D
:100FC0000400D8030400D4030400D0030400CC03BD
:100FD0000400C8030300C503030024F404D9201B44
:100FE000C40C5C0E9804C4095F0265077101F40526
:100FF000F900FB04B30048048700C10369005803EB
:10100000550003034500BE023A008402310053023A
:101010002A002902250004022000E4011C00C80166
:101020001900AF0117009801140084011300710129
:1010300010006101100051010E0043010D00360146
:101040000B002B010B0020010B00150109000C0106
:10105000090003010800FB000800F3000800EB0092
:101060000700E4000600DE000600D8000600D200FB
:101070000600CC000500C7000500C2000500BD0049
:101080000400B9000400B5000400B1000400AD0084
:101090000400A9000400A5000300A20003009F00B3
:1010A00004009B00030098000300950002009300D9
:1010B0000300900003008D0002008B0003008800F5
:1010C00002008600020084000300810002007F000D
:1010D00002007D0002007B00020079000200770020
:1010E000010076000200740002007200010071002D
:1010F00002006F0002006D0001006C0002006A0037
:10110000010069000200670001006600010065003F
:101110000100640002006200010061000100600043
:1011200001005F0002005D0001005C0001005B0047
:1011300001005A0001005900010058000100570049
:101140000100560001005500010054000100530049
:101150000000530001005200010051000100500046
:1011600001004F0001004E0000004E0001004D0044
:1011700001004C0001004B0000004B0001004A0040
:10118000010049000100480000004800010047003C
:101190000100460000004600010045000000450037
:1011A0000100440001004300000043000100420030
:1011B0000000420001004100000041000100400029
:1011C00001003F0000003F0001003E0000003E0023
:1011D00001003D0000003D0001003C0000003C001B
:1011E00000003C0001003B0000003B0001003A0011
:1011F00000003A0001003900000039000100380009
:1012000000003800000038000100370000003700FF
:1012100001003600000036000000360001003500F5
:1012200000003500000035000100340000003400EB
:1012300000003400010033000000330000003300E0
:1012400001003200000032000000320001003100D5
:1012500000003100000031000100300000003000CB
:101260000000300001002F0000002F0000002F00C0
:1012700000002F0001002E0000002E0000002E00B4
:1012800001002D0000002D0000002D0000002D00A9
:1012900001002C0000002C0000002C0000002C009D
:1012A00001002B0000002B0000002B0000002B0091
:1012B00001002A0000002A0000002A0000002A0085
:1012C0000100290000002900000029000000290079
:1012D000000029000100280000002800000028006C
:1012E000000028000000280001002700000027005F
:1012F0000000270000002700000027000100260052
:101300000000260000002600000026000000260045
:101310000100250000002500000025000000250038
:10132000000025000000250001002400000024002A
:10133000000024000000240000002400010023001D
:101340000000230000002300000023000000230011
:101350000000230000002300010022000000220002
:1013600000002200000022000000220000002200F5
:1013700001002100000021000000210000002100E8
:1013800000002100000021000000210001002000D9
:1013900000002000000020000000200000002000CD
:1013A00000002000000020000000200001001F00BD
:1013B00000001F0000001F0000001F0000001F00B1
:1013C00000001F0000001F0001001E0000001E00A2
:1013D00000001E0000001E0000006265640A002C70
:1013E0002073797374656D2073746F7070656421F8
:1013F000204865617465725F49443A200042656423
:101400002068656174696E67206661696C65640057
:1014100048656174696E67206661696C656400483F
:10142000656174696E67206661696C656400453149
:101430002048656174696E67206661696C65640047
:1014400045322048656174696E67206661696C6524
:1014500064001000600350012C0190012201D001B2
:10146000180110020E0170020401E002FA0060038C
:10147000F0000004E600B004DC00A005D200B006D5
:10148000C8000008BE00A009B400800BAA00D00D5F
:10149000A00090109600C0138C0070178200901B63
:1014A000780010206E00C0246400E02D50008035CC
:1014B0003C00A03A2800A03D1400003F0000A03FDF
:1014C000ECFF4572723A204D415854454D50204230
:1014D0004544004D415854454D502074726967672A
:1014E00065726564004531204572723A204D41585D
:1014F00054454D50004532204572723A204D4158B6
:1015000054454D50004572723A204D494E54454D58
:101510005020424544004D494E54454D5020747270
:1015200069676765726564004531204572723A20CB
:101530004D494E54454D50004532204572723A2077
:101540004D494E54454D5000202F00204000204270
:10155000403A0020403A0000002100240027002AE1
:10156000002D003000330001010000040107010AD2
:101570000100002200250028002B002E003100343D
:101580000002010000050108010B010000200023FA
:1015900000260029002C002F00320000010000036B
:1015A00001060109010505050507050808080802E7
:1015B0000202020A0A0808040404040101010101EC
:1015C0000101010303030303030303040707070CDB
:1015D0000C0C0C0C0C0C0C02020202060606060691
:1015E0000606060B0B0B0B0B0B0B0B01021020203E
:1015F0000808102040102040800201020108040267
:1016000001010204081020408080402010080402DC
:101610000180040201804020100804020108040235
:10162000010102040810204080010204081020403B
:101630008000000A0B02090C0D0E080703040100CC
:10164000000000000000000000000000000000009A
:101650000000000000000000000000000012111057
:10166000000000000000000000000000000000007A
:101670000000000000000048617264636F646564EC
:101680002044656661756C742053657474696E6777
:1016900073204C6F616465640A00F4010000F4017A
:1016A0000000320000001027000000004843000046
:1016B00048430000A04100003442000020430000E5
:1016C0002043F0F77B4400008C4320286D6D2900F7
:1016D00020440020490020204D333031205000208C
:1016E000440020490020500020204D333031204557
:1016F000005049442073657474696E67733A0A0038
:10170000205A0020590020204732392053332058D6
:1017100000205A0020204D3432302053004D657394
:101720006820426564204C6576656C696E673A0A8C
:1017300000205A0020590020580020204D32313816
:10174000205400486F74656E64206F66667365741C
:10175000733A0A00205A0020590020204D323036BA
:10176000205800486F6D65206F66667365743A0A8D
:1017700000204500205A0020590020580020420037
:1017800020540020204D32303520530041647661D2
:101790006E6365643A20533C6D696E5F666565648F
:1017A000726174653E20543C6D696E5F747261763F
:1017B000656C5F66656564726174653E20423C6D70
:1017C000696E5F7365676D656E745F74696D655F83
:1017D00075733E20583C6D61785F78795F6A6572F9
:1017E0006B3E205A3C6D61785F7A5F6A65726B3E32
:1017F00020453C6D61785F655F6A65726B3E0A00EB
:1018000020540020520020204D323034205000411E
:101810006363656C65726174696F6E2028756E69AB
:1018200074732F7332293A20503C7072696E745F62
:10183000616363656C3E20523C72657472616374CF
:101840005F616363656C3E20543C74726176656CC5
:101850005F616363656C3E0A00204500205A0020EA
:10186000590020204D3230312058004D6178696D8B
:10187000756D20416363656C65726174696F6E207C
:1018800028756E6974732F7332293A0A0020450057
:10189000205A0020590020204D3230332058004D6E
:1018A0006178696D756D20666565647261746573D4
:1018B0002028756E6974732F73293A0A0020450039
:1018C000205A0020590020204D39322058005374EE
:1018D0006570732070657220756E69743A0A002015
:1018E000204D3230302044300A0020204D3230303C
:1018F00020543120440020204D323030204400203C
:1019000044697361626C65640A0046696C616D6567
:101910006E742073657474696E67733A0020204793
:101920003231202020203B003A004361703A0023EE
:10193000646566696E652044454641554C545F4B6D
:1019400064200023646566696E6520444546415500
:101950004C545F4B69200023646566696E652044C2
:10196000454641554C545F4B70200050494420413E
:1019700075746F74756E652066696E6973686564E9
:10198000212050757420746865206C617374204B3D
:10199000702C204B6920616E64204B6420636F6E55
:1019A0007374616E74732066726F6D2062656C6F04
:1019B0007720696E746F20436F6E66696775726118
:1019C00074696F6E2E680A00504944204175746F27
:1019D00074756E65206661696C6564212074696D3B
:1019E000656F75740A0042454420544845524D4184
:1019F0004C2052554E4157415900546865726D61F3
:101A00006C2052756E6177617900453120544845EC
:101A1000524D414C2052554E4157415900453220BC
:101A2000544845524D414C2052554E415741590062
:101A30004265642068656174696E67206661696CDF
:101A400065640048656174696E67206661696C65EC
:101A5000640045312048656174696E67206661697C
:101A60006C65640045322048656174696E67206664
:101A700061696C656400504944204175746F7475E8
:101A80006E65206661696C6564212054656D7065C2
:101A900072617475726520746F6F20686967680A77
:101AA00000204B643A2000204B693A2000204B7004
:101AB0003A20000A20436C617373696320504944E3
:101AC000200A002054753A2000204B753A2000204F
:101AD0006D61783A2000206D696E3A200020643AEA
:101AE000200020626961733A20005049442041750A
:101AF000746F74756E65206661696C65642120423F
:101B00006164206578747275646572206E756D62AB
:101B100065720A00504944204175746F74756E6592
:101B20002073746172740A004F66660A004661642D
:101B300065204865696768742000426564204C65CB
:101B400076656C696E672000434F554C44204E4FBC
:101B50005420454E41424C45204D45534820424576
:101B600044204C4556454C494E470A004D65736824
:101B700020426564204C6576656C20646174613A2E
:101B80000A00496E76616C696420657874727564C8
:101B900065720A0020746F6F206C6F6E6720657825
:101BA00074727573696F6E2070726576656E746598
:101BB000640A0020636F6C642065787472757369C1
:101BC0006F6E2070726576656E7465640A000A4DEA
:101BD0006561737572656420706F696E74733A0A1B
:101BE000005A206F66667365743A20004E756D204A
:101BF000582C593A20332C330A00556E6B6E6F7790
:101C00006E20636F6D6D616E643A202200206669FC
:101C10007273740A005A0059005800486F6D6520AD
:101C2000006563686F3A004572726F723A00424510
:101C30004420544845524D414C2052554E41574145
:101C40005900546865726D616C2052756E617761E0
:101C50007900453120544845524D414C2052554E53
:101C60004157415900453220544845524D414C207E
:101C700052554E4157415900A28B11241FBECFEF40
:101C8000D1E2DEBFCDBF00E00CBF13E0A0E0B2E0C8
:101C9000EEE9FFE201E00BBF02C007900D92AC320B
:101CA000B107D9F72DE0ACE2B3E001C01D92AE3D23
:101CB000B207E1F71EE0CDE3DEE000E006C02197C9
:101CC0000109802FFE010E948497CC33D10780E068
:101CD0000807A9F70E9404860C94CD970C94000085
:101CE0002F923F924F925F926F927F928F929F922C
:101CF000AF92BF92CF92DF92EF92FF920F931F931A
:101D0000CF93DF93CDB7DEB7C556D1090FB6F894A0
:101D1000DEBF0FBECDBF11E0109320068091FD0302
:101D20008D3411F40C949017843511F40C94922492
:101D3000873411F00C94C0248091FB039091FC0334
:101D40008C31910509F4FEC57CF4843091053CF496
:101D500082309105BCF597FF2EC00C948C17049728
:101D600009F4BBC50C948C178A35910511F40C94B9
:101D7000FA164CF48D31910509F4E9C58A9709F4F6
:101D8000AAC70C948C178B35910511F40C94FE1690
:101D90008C35910511F00C948C171CE4212E12E067
:101DA000312E0BE2C02E06E0D02EE12CF12C00E00B
:101DB00010E00C943B1780912A0281110C94D024DE
:101DC0000C94C22420912A02222311F40C94C224E0
:101DD00011E0029709F010E00E94A92C82E50E9410
:101DE0009D2C882309F43CC10E94232C6B017C01AB
:101DF0004090F90C5090FA0C6090FB0C7090FC0C29
:101E00002091FD0C3091FE0C4091FF0C5091000D83
:101E10002EA73FA748AB59AB4091370650913806E3
:101E20006091390670913A064AAB5BAB6CAB7DAB07
:101E300060913B0670913C0680913D0690913E0674
:101E40006AAF7BAF8CAF9DAF20E030E0A901C70146
:101E5000B6010E945C90882309F425C5A301920174
:101E60006AA97BA98CA99DA90E945C9081110DC0D3
:101E70002EA53FA548A959A96AAD7BAD8CAD9DADF6
:101E80000E945C90882309F40EC520E030E0A9018F
:101E9000C701B6010E945C90881F8827881F18130D
:101EA0000BC080E090E0A0E8BFE32A968CAF9DAF26
:101EB000AEAFBFAF2A970AC020E030E040E85FEB4A
:101EC0002A962CAF3DAF4EAF5FAF2A97A301920188
:101ED0006AA97BA98CA99DA90E948E9422966CAFB9
:101EE0007DAF8EAF9FAF22972EA53FA548A959A9D8
:101EF0006AAD7BAD8CAD9DAD0E948E9426966CAF85
:101F00007DAF8EAF9FAF269722962CAD3DAD4EADE7
:101F10005FAD2297CA01B9010E94C1904B015C01DB
:101F200026962CAD3DAD4EAD5FAD2697CA01B901E9
:101F30000E94C1909B01AC01C501B4010E948F9425
:101F40000E94FA966EAB7FAB88AF99AF20E030E08D
:101F500040E05FE30E94C1904B015C01A701960144
:101F6000C701B6010E94C1906B017C01A5019401DB
:101F7000C501B4010E94C1909B01AC01C701B6012B
:101F80000E948E940E94FA969B01AC012A966CAD39
:101F90007DAD8EAD9FAD2A970E94C1904B015C0133
:101FA0002AA93BA94CA95DA9C301B2010E948F9443
:101FB00020E030E040E05FE30E94C1906B017C01D3
:101FC00026966CAD7DAD8EAD9FAD269790582EA90F
:101FD0003FA948AD59AD0E946B959B01AC01C5016D
:101FE000B4010E94C1909B01AC01C701B6010E94DF
:101FF0008F94A30192010E948E946B017C012AAD03
:102000003BAD4CAD5DAD6EA57FA588A999A90E9499
:102010008F9420E030E040E05FE30E94C1902B010C
:102020003C012EA93FA948AD59AD22966CAD7DADBE
:102030008EAD9FAD22970E946B959B01AC01C501AF
:10204000B4010E94C1909B01AC01C301B2010E9486
:102050008F942EA53FA548A959A90E948E9414C01B
:1020600089E40E949D2C882329F00E94232C6B0177
:102070007C0103C0C12CD12C76018AE40E949D2CE6
:102080008823D9F00E94232C6AAF7BAF8CAF9DAF21
:1020900020E030E0A901C701B6010E945C908111E7
:1020A0001AC020E030E0A9016AAD7BAD8CAD9DADDA
:1020B0000E945C9081110FC0F6C320E030E0A901BE
:1020C000C701B6010E945C90882309F4ECC31AAEE4
:1020D0001BAE1CAE1DAEB701A60170584EA75FA780
:1020E00068AB79AB6AAD7BAD8CAD9DAD90586AABFA
:1020F0007BAB8CAB9DAB2EA53FA548A959A9CA01C6
:10210000B9010E94C1904B015C012AA93BA94CA9CD
:102110005DA9CA01B9010E94C1909B01AC01C50132
:10212000B4010E948F940E94FA966A966CAF7DAFBC
:102130008EAF9FAF6A978091F90C9091FA0CA091A5
:10214000FB0CB091FC0C8EAB9FABA8AFB9AFA70155
:102150009601BC01CD010E948F942A966CAF7DAF91
:102160008EAF9FAF2A972091FD0C3091FE0C4091CD
:10217000FF0C5091000D22962CAF3DAF4EAF5FAFDC
:1021800022972AAD3BAD4CAD5DAD22966CAD7DADD9
:102190008EAD9FAD22970E948F942E966CAF7DAF2F
:1021A0008EAF9FAF2E9740913706509138066091C1
:1021B000390670913A0626964CAF5DAF6EAF7FAF91
:1021C00026972A962CAD3DAD4EAD5FAD2A9726964B
:1021D0006CAD7DAD8EAD9FAD26970E948E946B0148
:1021E0007C0160913B0670913C0680913D06909188
:1021F0003E0662966CAF7DAF8EAF9FAF62972E9614
:102200002CAD3DAD4EAD5FAD2E970E948E944B012F
:102210005C018091010D9091020DA091030DB09190
:10222000040D66968CAF9DAFAEAFBFAF66979C01B5
:10223000AD0160913F0670914006809141069091FA
:1022400042060E948E942B013C012091430630915E
:10225000440640914506509146066E962CAF3DAF20
:102260004EAF5FAF6E974091050D5091060D609196
:10227000070D7091080DA6964CAF5DAF6EAF7FAFA6
:10228000A697A70196016EA57FA588A999A90E9486
:10229000C190A2966CAF7DAF8EAF9FAFA297A50104
:1022A00094016AA97BA98CA99DA90E94C1909B0158
:1022B000AC01A2966CAD7DAD8EAD9FADA2970E9494
:1022C0008F94A2966CAF7DAF8EAF9FAFA297A50102
:1022D00094016EA57FA588A999A90E94C1904B0180
:1022E0005C01A70196016AA97BA98CA99DA90E94FE
:1022F000C1909B01AC01C501B4010E948E94A296CD
:102300002CAD3DAD4EAD5FADA2970E9402956B0125
:102310007C0120E030E0A9010E945C9087FF0AC0A8
:102320002BED3FE049EC50E4C701B6010E948F94C9
:102330006B017C01112351F02BED3FE049EC50E49F
:10234000C701B6010E948E946B017C0120E030E051
:10235000A901C701B6010E945C90811126C0269692
:102360002CAD3DAD4EAD5FAD26976EA97FA988AD72
:1023700099AD0E945C90811118C062962CAD3DAD64
:102380004EAD5FAD629722966CAD7DAD8EAD9FADCB
:1023900022970E945C90811108C00BEDC02E0FE0C7
:1023A000D02E09ECE02E00E4F02EA70196016A96EB
:1023B0006CAD7DAD8EAD9FAD6A970E94C1904B0113
:1023C0005C0120E030E0A901C301B2010E945C90F1
:1023D0008823C9F0A5019401C501B4010E94C190F0
:1023E0004B015C01A3019201C301B2010E94C190A3
:1023F0009B01AC01C501B4010E948F940E94FA9622
:102400004B015C0102C0E894B7F82FE632E143E8E3
:102410005AE3C501B4010E945C9087FF02C00C948E
:10242000C224C501B4010E9404960E94D8951B01E4
:10243000672B19F422242394312CB10180E090E021
:102440000E9460904B015C019B01AC01C701B60189
:102450000E946B956EAB7FAB88AF99AFA5019401DD
:10246000C301B2010E946B956A966CAF7DAF8EAFCF
:102470009FAF6A97A6962CAD3DAD4EAD5FADA697CA
:102480006E966CAD7DAD8EAD9FAD6E970E948E94B5
:10249000A50194010E946B956E966CAF7DAF8EAFD7
:1024A0009FAF6E972EA93FA948AD59ADCA01B9019A
:1024B0000E94C19020E030E040E05FE30E94C190C4
:1024C0009B01AC0160E070E080E89FE30E948E9485
:1024D00062966CAF7DAF8EAF9FAF629766966CAD24
:1024E0007DAD8EAD9FAD669769877A878B879C8718
:1024F000A6968CAD9DADAEADBFADA6978D879E87E0
:10250000AF87B88B60910E0270910F02072E000CFE
:10251000880B990B0E94629020911502309116024F
:1025200040911702509118020E94C1902AE037EDA5
:1025300043E25CE30E94C1906AA77BA78CA79DA79A
:102540000E94B6559B01AC0128533F4F4F4F5F4F40
:1025500066962CAF3DAF4EAF5FAF66974EA45FA4BB
:1025600068A879A841E050E024965FAF4EAF249769
:1025700059E15EAF2496AEADBFAD2497A215B30569
:1025800009F447C10E94A5490E94B655DC01CB0160
:1025900066962CAD3DAD4EAD5FAD6697821B930B3D
:1025A000A40BB50BB7FD10C00E94B6559B01AC0142
:1025B00028533F4F4F4F5F4F66962CAF3DAF4EAF06
:1025C0005FAF66970E94FF363EAD31503EAF33237A
:1025D00009F441C062962CAD3DAD4EAD5FAD629742
:1025E0006AA97BA98CA99DA90E94C1906B017C015D
:1025F0002EA93FA948AD59ADB201C3010E94C190B7
:10260000A70196010E948F947B018C0162962CADEC
:102610003DAD4EAD5FAD6297B201C3010E94C19066
:102620004B015C012EA93FA948AD59AD6AA97BA910
:102630008CA99DA90E94C1909B01AC01C501B40168
:102640000E948E942B013C01C701D8018AAB9BAB41
:10265000ACABBDAB53C024964EAD5FAD2497BA0171
:1026600080E090E00E9460902EA93FA948AD59AD4E
:102670000E94C1904B015C010E9468956B017C0136
:10268000C501B4010E94F0964B015C01A7019601BF
:102690006EA57FA588A999A90E94C1902B013C0134
:1026A000A50194016AAD7BAD8CAD9DAD0E94C1903A
:1026B0009B01AC01C301B2010E948F942B013C012C
:1026C000A50194016EA57FA588A999A90E94C19032
:1026D0004B015C01A70196016AAD7BAD8CAD9DAD50
:1026E0000E94C1909B01AC01C501B4010E948E946F
:1026F0006AAB7BAB8CAB9DAB59E15EAF9201A301A2
:102700002A966CAD7DAD8EAD9FAD2A970E948F94B9
:1027100069837A838B839C832AA93BA94CA95DA9F1
:102720002E966CAD7DAD8EAD9FAD2E970E948F9491
:102730006D837E838F8398876A962CAD3DAD4EADB9
:102740005FAD6A9769857A858B859C850E948F9499
:1027500069877A878B879C876E962CAD3DAD4EAD91
:102760005FAD6E976D857E858F8598890E948F9469
:102770006D877E878F87988B80910D02882321F04B
:10278000CE0101960E942B33E09047061AA21BA2AD
:102790001CA21DA289819A81AB81BC818E8B9F8BEB
:1027A000A88FB98F8D819E81AF81B8858A8F9B8FCD
:1027B000AC8FBD8F89859A85AB85BC858E8F9F8FA9
:1027C000A8A3B9A3AE01425E5F4FBE01665E7F4F14
:1027D000CE0146960E94A276BE016E5D7F4F6B01D0
:1027E0008E01065D1F4F9E01235F3F4FAE01425E8B
:1027F0005F4F68507109CE0146960E94C87A2496B0
:102800008EAD9FAD2497019624969FAF8EAF2497EF
:10281000B1CEE09047061EA21FA218A619A680916D
:10282000370690913806A0913906B0913A068E8B02
:102830009F8BA88FB98F80913B0690913C06A09109
:102840003D06B0913E068A8F9B8FAC8FBD8F8091E5
:102850003F0690914006A0914106B09142068E8FAE
:102860009F8FA8A3B9A3AE01425E5F4FBE01665E13
:102870007F4FCE0146960E94A276FE01B6966F016A
:102880008E01065D1F4F23E436E0AE01425E5F4FCE
:10289000BE01665E7F4FCE0146960E94C87A0E94B6
:1028A000332D0C94C224E7E2FCE184918F010F5F89
:1028B0001F4F882321F00E943D2DF801F6CFE7EE4F
:1028C000F1E084918F010F5F1F4F882311F40C9466
:1028D000C2240E943D2DF801F4CF80E50E949D2C7A
:1028E000882329F00E94E32B6B017C0103C0C12CDB
:1028F000D12C760183E50E949D2C882361F00E94F3
:10290000232C20E030E04AE754E40E94C1900E946A
:10291000D8956B017C010E943F4C0E94B655C60EB3
:10292000D71EE81EF91E0E94B655DC01CB018C199A
:102930009D09AE09BF09B7FD02C00C94C2240E94D4
:10294000FF36F1CF80E00E94F5300C94C22483E57D
:102950000E949D2C882311F10E94032C282F863081
:1029600070F0EFEAF2E084918F010F5F1F4F882330
:1029700011F40C94C2240E943D2DF801F4CF833051
:1029800009F42EC12CF4813069F18230D9F106C0EE
:10299000843009F487C1853009F494C10E94FE286F
:1029A000882399F08091110D811103C062EF72E0CC
:1029B00002C06EEE72E087E892E00E94087A8AE038
:1029C0000E943D2D0E94CF8182C1EFE8F2E0849108
:1029D0008F010F5F1F4F882309F479C10E943D2D9D
:1029E000F801F5CF0E94838210920102109200023A
:1029F0008CE792E090932D0380932C030E94442D4A
:102A00000C94C224809100029091010297FF0EC0A5
:102A1000E3E5F2E084918F010F5F1F4F882311F4EB
:102A20000C94C2240E943D2DF801F4CF0097A1F42C
:102A300080910D0280933F0319821A821B821C82AF
:102A40001E8A1F8A188E198EBE016F5F7F4FCE01BE
:102A500046960E947B2A2AC0815063E00E946397B9
:102A600080FF02C0291B922F292F990F330BF901E8
:102A7000EE0FFF1FE20FF31FE80FF11D87FDFA9520
:102A8000EE0FFF1FEE0FFF1FE353F34F8091010D79
:102A90009091020DA091030DB091040D808391835C
:102AA000A283B38380913F0380930D028091000243
:102AB00090910102893091050CF068C010920D02CE
:102AC0009C012F5F3F4F309301022093000263E08F
:102AD0000E94639780FF03C022E0291B922F409140
:102AE000010D5091020D6091030D7091040D4E8BFC
:102AF0005F8B688F798F19821A821B821C82F4E0A7
:102B00008F0290011124A9014E5B524F4A01DA0154
:102B10002D913D914D915C91B4E09B02C001112437
:102B2000FC01E25BF24F5F016081718182819381E0
:102B3000DE0111966D01E12CF12C00EA10E40E94F7
:102B40009F2919821A821B821C82B601CE014696E9
:102B50000E947B2AF50180819181A281B3818093BB
:102B6000F90C9093FA0CA093FB0CB093FC0CF401BD
:102B700080819181A281B3818093FD0C9093FE0CA2
:102B8000A093FF0CB093000D0C94D42480E090E04F
:102B9000A0EAB0E48093010D9093020DA093030D81
:102BA000B093040D0E9448290E943F4C8FEF9FEF85
:102BB0009093010280930002EFE3F2E084918F0191
:102BC0000F5F1F4F882321F00E943D2DF801F6CFA3
:102BD00081E00E94F53081E00E942E290C94D424DB
:102BE00088E50E949D2C8823A1F00E94F32B1FEF03
:102BF000160F1330A8F0E8E2F2E084918F010F5F26
:102C00001F4F882311F40C94C2240E943D2DF8011B
:102C1000F4CF88E50E943D2D0E94F4850C94C224D7
:102C200089E50E949D2C8823A1F00E94F32B0FEFD1
:102C3000060F0330A8F0E1E1F2E084918F010F5F0D
:102C40001F4F882311F40C94C2240E943D2DF801DB
:102C5000F4CF89E50E943D2D0E94F4850C94C22496
:102C60008AE50E949D2C8823B1F00E94232C212FFD
:102C700030E0F901EE0FFF1FE20FF31FE00FF11D2F
:102C8000EE0FFF1FEE0FFF1FE353F34F60837183BF
:102C9000828393831CC08AE50E943D2D0E94F485A7
:102CA0000C94C2248AE50E949D2C8823A1F30E94E3
:102CB000232C6093C90C7093CA0C8093CB0C909317
:102CC000CC0C05C080E00E942E290E9483820E94C5
:102CD00027300C94C22480912A02882311F40C948A
:102CE000C22489E40E949D2CF82E882321F00E94A2
:102CF000F32B062F01C000E08AE40E949D2CE82EF1
:102D0000882331F00E94F32B162FF11004C00AC063
:102D100010E0FF20B1F0033010F40C946B28E6ECC7
:102D2000F2E003C01330D8F70CC084918F010F5F1D
:102D30001F4F882311F40C94C2240E943D2DF801EA
:102D4000F4CF0E94292DFF2091F024E00202F0012F
:102D50001124E25BF24F80819181A281B381809343
:102D6000370690933806A0933906B0933A06EE20C2
:102D700091F034E01302F0011124EE5BF24F8081F8
:102D80009181A281B38180933B0690933C06A093EE
:102D90003D06B0933E0680E50E949D2C882319F0E5
:102DA0000E94142C03C080E50E94562C86E40E94E9
:102DB0009D2C8823D9F00E94232C6B017C0120E0FC
:102DC00030E0A9010E94B596181684F420E030E0A6
:102DD00040E752E4C701B6010E946B95609315026B
:102DE0007093160280931702909318020E94803904
:102DF0000C94C22410923E030C94C22410933E0300
:102E00000C94C2240E94232C2B013C01133059F056
:102E1000F701E25DFC4F20813181428153810E94A4
:102E20008E942B013C01F701E750F34F2081318153
:102E300042815381C301B2010E948E944B015C0117
:102E40002DEB37E346E855EB0E94B59687FD1BC096
:102E50002DEB37E346E855E3C501B4010E945C90D1
:102E600018168CF01F5FB4E0CB0ED11CE4E0EE0E20
:102E7000F11C143039F1D1018D911D010E949D2C5E
:102E8000882381F3BFCF133051F44092050D509247
:102E9000060D6092070D7092080D01E0E3CFA501C9
:102EA0009401F60160817181828193810E948F94E7
:102EB000D6016D937D938D939C931397812F0E94E0
:102EC000992AD0CF002309F402CF2091C20C30916F
:102ED000C30C4091C40C5091C50C6091050D7091CC
:102EE000060D8091070D9091080D0E94C1900E94DF
:102EF000C09660933E0D70933F0D8093400D90936C
:102F0000410D10922E0D10922F0D1092300D109237
:102F1000310D0E941E7CDBCE0E94D7850C94C2240A
:102F20008091FB039091FC038C38910509F4CCC38C
:102F30000CF092C08936910509F468C30CF04EC0BC
:102F40008D34910509F44CC2CCF48F31910509F40C
:102F50004EC14CF48131910509F43EC1429709F408
:102F600026C40C948F248B34910509F420C20CF0F4
:102F700022C28A9709F4DEC10C948F24843591050E
:102F800009F415C4ECF48235910509F407C40CF07A
:102F900009C48135910511F00C948F240E94B75A11
:102FA0000E943F4C0E94C13610928A0C1092890CEC
:102FB00068EE73E080E090E00E940C560C94C2240E
:102FC0008C35910509F441C48836910509F40CC289
:102FD0008535910511F00C948F241CC4813791051F
:102FE00009F4E8C2B4F48D36910509F451C354F4E0
:102FF0008B36910509F4C0C30CF499C310920202F8
:103000000C94C2248F36910509F435C20CF420C209
:10301000CDC28637910509F404C56CF48337910558
:1030200009F4A2C40CF49AC48537910511F40C94E8
:10303000C2240C948F248837910509F4A5C50CF49B
:103040003DC58937910511F00C948F2410925B0DCA
:1030500010925A0D0C94C2248D32F1E09F0711F4A6
:103060000C9454220CF058C08E3C910509F41FC7F3
:1030700044F5893C910509F4F0C574F48E3B910543
:1030800009F440C3883C910509F484C58B39910546
:1030900011F00C948F24D5C28C3C910509F413C611
:1030A0000CF086C68B3C910511F00C948F24ADE694
:1030B000EA2EACE0FA2E0CE412E0B4E0DB2ED00EE7
:1030C000F3C58D3D910511F40C940A2194F48A3DC9
:1030D000910511F40C94F1208C3D910511F40C94A0
:1030E000FD20833D910511F00C948F24E1E2FCE179
:1030F000A6C7883131E0930711F40C949F218232E6
:1031000041E0940711F40C944922823E910511F09C
:103110000C948F240C9476218C3A51E0950709F495
:10312000E8C674F5803971E0970711F40C946323B5
:1031300094F48F32B1E09B0711F40C94492314F4FA
:103140000C94F5228336914011F00C948F24E7E221
:10315000FCE10C944C23843A21E0920711F40C9486
:103160006623853A31E0930711F40C9469238A3978
:10317000914011F00C948F240E94D2630C94C224CD
:10318000873F51E0950711F40C94512494F4853F46
:1031900071E0970711F40C944B2414F00C944E2416
:1031A000843F914011F00C948F240E9420430C9492
:1031B000C2248B38E3E09E0711F40C94C224873EAE
:1031C000F3E09F0711F40C947E24883F914011F0A6
:1031D0000C948F240C945B245F988A98809108014A
:1031E000817080930601129847980C94C2240E9423
:1031F000574BBCE3CB2ED12CE12CF12CA70196012F
:103200000E943794762E672ECA01B901A701960154
:103210000E9437946B017C01CA01B90128E130E0BA
:1032200040E050E00E9437944B015C01C9016DE61B
:1032300071E00E9470978E010F5F1F4F611571053D
:1032400099F06F927F92DF92CF929F928F929F938D
:103250008F937F936F938DE093E09F938F931F9352
:103260000F930E942D9026C0009789F06F927F9255
:10327000DF92CF929F928F929F938F938DEF92E0E8
:103280009F938F931F930F930E942D9013C08114CF
:103290009104A104B104B1F06F927F92DF92CF92BA
:1032A0009F928F9281EF92E09F938F931F930F9342
:1032B0000E942D900FB6F894DEBF0FBECDBFE1E2A5
:1032C000FCE123C0C114D104E104F10469F06F9260
:1032D0007F92DF92CF9289EE92E09F938F931F931C
:1032E0000F930E942D90E6CF6F927F9285EE92E031
:1032F0009F938F931F930F930E942D900F900F9089
:103300000F900F900F900F90DACF84917F01BFEF55
:10331000EB1AFB0A882321F00E943D2DF701F5CF1F
:10332000B80181E293E00E94087A8AE00E943D2D74
:103330000C94C22483E50E949D2C882311F40C94E4
:10334000C2240E94032CE82E80E50E949D2C882335
:1033500039F00E94032C182F87FF03C00C94C2245D
:103360001DE0E0E0F6E086E38E0F9491191729F056
:1033700031968E13FACF0C94EC24E7E2FCE18491B1
:103380008F010F5F1F4F882321F00E943D2DF80110
:10339000F6CFEEE2F3E084918F010F5F1F4F882399
:1033A00011F40C94C2240E943D2DF801F4CF0E9428
:1033B0008B4B0C94C2248091C303813011F00C9488
:1033C000C22482E08093C3030E94B6556093BB037E
:1033D0007093BC038093BD039093BE030C94C224EE
:1033E0000E94C44B0C94C22488E690E00E94602F97
:1033F00081110C94C2248091FE0383FF02C00C94BF
:10340000C22483E50E949D2C8823F1F00E94232C86
:10341000F090F70B0F2D10E0000F111F0D50144FFF
:103420000E94D395F801718360838F2D0E94605AAA
:103430000E94232C20E030E04AEA52E40E945C9093
:10344000181614F00E94C44B0E94728B0C94C22474
:103450008EE40E949D2C882311F40C94C2240E94B7
:10346000F32B6093180D7093190D80931A0D9093A0
:103470001B0D0C94C22483E50E94562C882359F01E
:1034800083E50E949D2C882319F00E94032C01C023
:1034900080E08093FE03E1E2FCE184918F010F5F05
:1034A0001F4F882321F00E943D2DF801F6CFEBE459
:1034B000F3E084918F010F5F1F4F882321F00E945A
:1034C0003D2DF801F6CF8091FE038823A1F1FDE3A5
:1034D000CF2EF3E0DF2EE12CF12C20E08091FE03D3
:1034E00090E00E2C02C0959587950A94E2F780FF34
:1034F00017C0BB24B394B20E222319F08CE20E94B1
:103500003D2DF60125913491F901849189010F5FD8
:103510001F4F882321F00E943D2D9801F5CF2B2DC0
:10352000FFEFEF1AFF0A32E0C30ED11C45E0E416AC
:10353000F104A1F636C0E7E4F3E084918F010F5F58
:103540001F4F882371F10E943D2DF801F6CF0CE149
:103550001CE080E20E943D2DD8016D917D918D91FE
:103560009D918D0142E00E94B62F8CE20E943D2D7C
:10357000F801648175818681978142E00E94B62FAF
:103580008CE20E943D2DD8011C966D917D918D910C
:103590009C911F9742E00E94B62FBCE004321B07AB
:1035A000C1F68AE00E943D2D0C94C22482E593E08E
:1035B0000E94CF3683E50E949D2C882369F00E94EB
:1035C000032C8D3320F4809310020C94C2248CE3DE
:1035D000809310020C94C224E1E2FCE184918F01FB
:1035E0000F5F1F4F882321F00E943D2DF801F6CF79
:1035F0004091100250E060E070E08BE593E00E94A3
:1036000098798AE00E943D2D0C94C22489E690E0CE
:103610000E94602F811111C0E2E6F3E084918F01D6
:103620000F5F1F4F882321F00E943D2DF801F6CF38
:103630000E94DC568AE00E943D2D109220060C94D8
:10364000992883E50E949D2C882311F40C94C224B0
:103650000E94032C182F8D3308F01CE310932906C9
:103660000E94B6556B017C01212F30E0A8EEB3E03B
:103670000E947F94C60ED71EE81EF91EC092250632
:10368000D0922606E0922706F09228060C94C224D7
:103690008DE690E00E94602F81110C94C2248091ED
:1036A000FE0383FF02C00C94C22483E50E949D2C7C
:1036B0008AAF81110C94002582E50E949D2C811116
:1036C0000C9400250C94C2248091FE0383FF02C059
:1036D0000C94C22483E50E949D2C882311F40C9441
:1036E000C2240E94232C0E94D3956739710514F0DF
:1036F00066E970E07093EA0B6093E90B0E94165A3A
:103700000C94C2248091FE0383FF02C00C94C22457
:1037100083E50E949D2C8AAF81110C94602682E57E
:103720000E949D2C81110C9460260C94C22480E58B
:103730000E949D2C811108C083E50E949D2C81115F
:1037400009C03FEF20E00AC00E94032C81110C94B5
:10375000C224F2CF0E94F32B362F272F832F922FD4
:103760008F3F910519F010F08FEF90E090938A0C45
:103770008093890C0C94C22480E50E949D2C8111B9
:1037800006C010928A0C1092890C0C94C2240E94DC
:10379000F32B672B11F00C94C224F3CF10923D034E
:1037A0000C94C22481E080933D030C94C22483E5F1
:1037B0000E949D2C8823A1F00E94232C20E030E061
:1037C0004AE754E40E94C1900E94D8956093110288
:1037D0007093120280931302909314020C94C224EB
:1037E00088E50E94562C81110C94AF2789E50E9430
:1037F000562C81110C94AF278AE50E94562C81111A
:103800000C94AF2785E40E94562C81110C94AF27AD
:103810000C94D32783E50E94562C882311F40C9432
:10382000C2240E94232C20E030E04AE754E40E94A6
:10383000C1900E94D89560932106709322068093D0
:103840002306909324060C94C2249CE4C92E92E093
:10385000D92E26EBE22E2CE0F22E10E0D6018D912F
:103860006D010E94562C882309F46DC0133009F0B5
:1038700063C00E94232C4B015C0120E030E040EA51
:1038800051E40E945C9087FF4EC0A50194016091B5
:10389000C20C7091C30C8091C40C9091C50C0E9415
:1038A0006B952B013C019B01AC0160915D0C70910B
:1038B0005E0C80915F0C9091600C0E94C1906093AF
:1038C0005D0C70935E0C80935F0C9093600CA30171
:1038D00092016091790C70917A0C80917B0C90919F
:1038E0007C0C0E94C1906093790C70937A0C809349
:1038F0007B0C90937C0C6091A20C7091A30C809136
:10390000A40C9091A50C0E946090A30192010E94CA
:10391000C1900E94D8956093A20C7093A30C8093E1
:10392000A40C9093A50C8092C20C9092C30CA09210
:10393000C40CB092C50C07C00E94232CF701608311
:103940007183828393831F5FF4E0EF0EF11C1430C8
:1039500009F084CF0E941A7D0C94C2240E943F4C2F
:103960000E9427300C94C224ECE4F4E084918F018F
:103970000F5F1F4F882321F00E943D2DF801F6CFE5
:1039800060E08CE394E00E94E86861E085E394E005
:103990000E94E86861E08AE294E00E94E86861E0E1
:1039A0008AE194E00E94E86860E081E194E00E948E
:1039B000E86861E087E094E00E94E86860E08DEFED
:1039C00093E00E94E86860E085EF93E00E94E86879
:1039D00061E087EE93E00E94E86860E089ED93E0A3
:1039E0000E94E86860E08AEC93E00E94E86860E08A
:1039F0008CEB93E00E94E86860E086EA93E00E9426
:103A0000E86860E085E993E00E94E86860E080E8AB
:103A100093E00E94E86861E08DE693E00E94E86828
:103A2000B1C70091F9031091FA0383E0D12C40E073
:103A30008150E9F0D8019C91292F2B7F2134C1F7C7
:103A400011962C912133A1F7913421F0953421F472
:103A500041E002C0DD24D39498012E5F3F4F8901DD
:103A60002F5F3F4FF80190819032C9F3E1CF44239B
:103A700069F0E1E2FCE184917F012FEFE21AF20AA2
:103A8000882321F00E943D2DF701F5CFDD2069F05C
:103A9000E4E1F5E084917F013FEFE31AF30A882324
:103AA00021F00E943D2DF701F5CFD8018D918D01B8
:103AB000882309F476CD0E943D2DF7CFE0E3F5E0B1
:103AC00084918F010F5F1F4F882321F00E943D2DAD
:103AD000F801F6CFE8E2F5E084918F010F5F1F4F08
:103AE000882321F00E943D2DF801F6CF659903C08F
:103AF00006EF12E002C00BEF12E0F80181918F0196
:103B0000882319F00E943D2DF8CF8AE00E943D2DB8
:103B1000E0E2F5E084918F010F5F1F4F882321F0D1
:103B20000E943D2DF801F6CF8091030180FD03C076
:103B300006EF12E002C00BEF12E0D8018D918D016B
:103B4000882319F00E943D2DF8CF8AE00E943D2D78
:103B5000E8E1F5E084918F010F5F1F4F882321F08A
:103B60000E943D2DF801F6CF4A9903C006EF12E0FE
:103B700002C00BEF12E0F80181918F01882309F454
:103B800010CD0E943D2DF7CF81E080935B0D809397
:103B90005A0DF8C688EC90E00E94602F8111F2C6A1
:103BA00084E40E94562C882309F454C00E94232CDC
:103BB00011E020E030E0A9010E945C90811101C079
:103BC00010E01093400C112309F444C00E94232CF0
:103BD000E091F70B24E0E29FF0011124E75BF34F43
:103BE000608371838283938320E030E0A901609138
:103BF000490C70914A0C80914B0C90914C0C0E9496
:103C00005C9081110CC080E090E0A0EEBFE3809357
:103C1000490C90934A0CA0934B0CB0934C0C20E0B1
:103C200030E0A90160914D0C70914E0C80914F0CC9
:103C30009091500C0E945C9081110CC080E090E04B
:103C4000A0EEBFE380934D0C90934E0CA0934F0CCD
:103C5000B093500C0E94DE7695C616EAE12E1CE069
:103C6000F12E0CE412E084E0D82ED00ED8018D9114
:103C70008D010E94562C882349F00E94232C0E941B
:103C8000D895F7016083718382839383F4E0EF0E0C
:103C9000F11CD012EBCF0E945E7A74C6F4E0EF0EF6
:103CA000F11CD01609F46EC6D8018D918D010E94C9
:103CB000562C882399F30E94232CF701608371838B
:103CC00082839383EBCF83E50E949D2C8823A1F010
:103CD0000E94232C6093650C7093660C8093670C94
:103CE0009093680C6093610C7093620C8093630CEA
:103CF0009093640C10E001C011E080E50E949D2CBF
:103D0000882359F00E94232C6093650C7093660CF5
:103D10008093670C9093680C10E082E50E949D2CC4
:103D2000882359F00E94232C6093690C70936A0CCD
:103D300080936B0C90936C0C10E084E50E949D2C9A
:103D4000882359F00E94232C6093610C7093620CBD
:103D50008093630C9093640C15C6112309F412C66A
:103D60004091650C5091660C6091670C7091680CE5
:103D700080E595E00E94D2794091690C50916A0CDF
:103D800060916B0C70916C0C8DE495E00E94D2797F
:103D90004091610C5091620C6091630C7091640CC5
:103DA0008AE495E00E94D2798AE00E943D2DEAC51E
:103DB00083E50E94562C882351F00E94232C6093A7
:103DC000850C7093860C8093870C9093880C84E507
:103DD0000E94562C882351F00E94232C6093810C62
:103DE0007093820C8093830C9093840C82E40E94E5
:103DF000562C882351F00E94E32B60937D0C709326
:103E00007E0C80937F0C9093800C88E50E94562C4A
:103E1000882351F00E94232C6093510C7093520C14
:103E20008093530C9093540C89E50E94562C882360
:103E300051F00E94232C6093550C7093560C809384
:103E4000570C9093580C8AE50E94562C8823F1F069
:103E50000E94232C6093590C70935A0C80935B0C36
:103E600090935C0C2DEC3CEC4CEC5DE30E945C9080
:103E7000181664F0E0E6F5E084918F010F5F1F4FA4
:103E8000882321F00E943D2DF801F6CF85E40E94A1
:103E9000562C882309F476C50E94232C60935D0C70
:103EA00070935E0C80935F0C9093600C6BC5ECE498
:103EB000CE2EE2E0DE2EF7ECEF2EF3E0FF2E10E048
:103EC000D6018D916D010E94562C882351F00E94DD
:103ED000232CF7016083718382839383812F0E9457
:103EE000992A1F5FF4E0EF0EF11C133049F70C9490
:103EF00067160E946B85811145C573E7872E7AE0AE
:103F0000972E29EF3CE03FA72EA7AE014F5F5F4FF2
:103F10005A010CEC1AE01A0153E0500F5AABF401AD
:103F20006591759185919491AEA5BFA5CD90DD90D9
:103F3000ED90FD90BFA7AEA7A70196010E948E94B9
:103F40002B013C0120E030E040EA51EC0E94B596A4
:103F500087FD10C020E030E040EA51E4C301B20127
:103F60000E945C90181634F0F10140825182628206
:103F700073820EC0F80184911816B4F7F7FAF09422
:103F8000F7F8F094D101CD92DD92ED92FC92139767
:103F9000D101CD90DD90ED90FD901D0120E030E04D
:103FA00040EA51ECC701B6010E94B59687FF03C0F5
:103FB000E7E2FCE10BC020E030E040EA51E4C70159
:103FC000B6010E945C901816C4F4F2CF84918F0160
:103FD0000F5F1F4F882321F00E943D2DF801F6CF7F
:103FE000E2E9F5E084918F010F5F1F4F882309F408
:103FF000C9C40E943D2DF801F5CFB4E08B0E911C91
:104000000F5F1F4FEAA9E0138ACF67ECE62E63E04B
:10401000F62E10E0F50181919191A191B1915F018E
:10402000F70181939193A193B1937F01812F0E9416
:10403000992A1F5F133071F70E942730A3C484911F
:104040008F010F5F1F4F882321F00E943D2DF80143
:10405000F6CF83E50E94562C882321F00E94142C71
:1040600080930D02E8EDF5E084918F010F5F1F4F03
:10407000882321F00E943D2DF801F6CF80910D029A
:10408000811103C0E4EDF5E002C0E0EDF5E08491BC
:104090008F010F5F1F4F882321F00E943D2DF801F3
:1040A000F6CFE8ECF5E084918F010F5F1F4F882376
:1040B00021F00E943D2DF801F6CF40902E03509044
:1040C0002F036090300370903103209148063091A7
:1040D000490640914A0650914B06C301B2010E9425
:1040E0008F94AB01BC0186EC95E00E94D279809060
:1040F000320390903303A0903403B09035032091A5
:104100004C0630914D0640914E0650914F06C50128
:10411000B4010E948F94AB01BC0183EC95E00E9436
:10412000D279C0903603D0903703E0903803F090F6
:10413000390320915006309151064091520650911A
:104140005306C701B6010E948F94AB01BC0180ECFD
:1041500095E00E94D279E8EBF5E084918F010F5F42
:104160001F4F882321F00E943D2DF801F6CF2091AA
:10417000190230911A0240911B0250911C02C30196
:10418000B2010E948F94AB01BC0186EB95E00E94C6
:10419000D27920911D0230911E0240911F02509150
:1041A0002002C501B4010E948F94AB01BC0183EBD6
:1041B00095E00E94D2792091210230912202409113
:1041C000230250912402C701B6010E948F94AB01D3
:1041D000BC0180EB95E00E94D2798AE00E943D2DDF
:1041E000D1C38AED90E00E94602F8111CBC38091F2
:1041F000F70B882309F4C6C3DBC683E50E949D2C18
:10420000882309F4BFC30E94F32B70930F026093BD
:104210000E02B8C38DED90E00E94602F8111B2C3F1
:1042200083E50E949D2C8823C9F10091F70B10E0D3
:104230000E94F32B000F111FF801E25DFD4F718307
:1042400060838091F70B90E07C01EE0CFF1CEE0C7C
:10425000FF1C87010E5C1D4F880F991FFC01E25D5A
:10426000FD4F60817181072E000C880B990B0E9415
:1042700062902AE037ED43E25CE30E94C190F701CF
:10428000EF5BF34F20813181428153810E94C190C5
:10429000F801608371838283938374C3E1E2FCE15C
:1042A00084918F010F5F1F4F882321F00E943D2DC5
:1042B000F801F6CF85E40E943D2D8091F70B805DDB
:1042C0000E943D2DE091F70BF0E0EE0FFF1FE25D45
:1042D000FD4F6081718188EF95E00E94EF7985E262
:1042E0000E943D2D8AE00E943D2D4CC380E50E9436
:1042F000562C882309F446C30E94F32B6B017C01E2
:1043000083E50E949D2C882321F00E94F32B8B01D2
:1043100002C00FEF1FEFC8010196039708F032C3E8
:10432000D7FC30C39C2DE0E0F6E086E38E0F2491AD
:10433000921709F427C331968E13F9CFD2C680E5C0
:104340000E94562C882309F41DC30E94F32B6B0195
:104350007C018B01672B09F07EC083E50E94562CFF
:10436000882339F00E94F32B89EC9DE00E94667847
:1043700009C3E1E2FCE184917F012FEFE21AF20A26
:10438000882321F00E943D2DF701F5CF60E070E019
:104390008FE496E00E94EF798091CB0D28E532E022
:1043A0006901C81AD10887FDD394CC0CDD1CCC0C54
:1043B000DD1C0D2C000CEE08FF088091CA0D28E8CA
:1043C00030E04901881A910887FD9394880C991C64
:1043D000880C991C092C000CAA08BB088091C90DF7
:1043E0008F3FB9F090E0FC01EE0FFF1F8E0F9F1F73
:1043F000FC01E45AF24F0181128153E0000F111FBA
:104400005A95E1F764E0169507956A95E1F70E5F16
:104410001F4F98012F5F3F4FC901330FAA0BBB0BF2
:104420009C01AD01281939094A095B09A4EBB0E0E8
:104430000E947594A7019601281939094A095B0958
:104440000E945994B9018CE496E00E94EF798AE0C9
:104450000E943D2D97C2E7E2FCE184918F010F5F3E
:104460001F4F882321F00E943D2DF801F6CFB601A1
:1044700085E496E00E94EF79E6E3F6E084918F010F
:104480000F5F1F4F882309F47DC20E943D2DF80164
:10449000F5CF8AE50E949D2C8111E4C583E50E9439
:1044A0009D2C8111DFC56EC285E40E949D2C811177
:1044B00010C080E50E94562C882391F00E94232C86
:1044C0006093580B7093590B80935A0B90935B0B2E
:1044D00007C00E94032C823060F3E7E2FCE16EC06B
:1044E00089E40E94562C882381F00E94232C2CEA18
:1044F00035EC47E25EE30E94C1906093540B7093E9
:10450000550B8093560B9093570B84E40E94562CC6
:10451000882381F00E94232C2CEA35EC47E25EE3ED
:104520000E946B9560935C0B70935D0B80935E0BA8
:1045300090935F0BE1E2FCE184918F010F5F1F4FCD
:10454000882321F00E943D2DF801F6CF4091580BB1
:104550005091590B60915A0B70915B0B8FE596E06F
:104560000E94D2792CEA35EC47E25EE36091540B6D
:104570007091550B8091560B9091570B0E946B9543
:10458000AB01BC018BE596E00E94B5792CEA35ECD5
:1045900047E25EE360915C0B70915D0B80915E0B76
:1045A00090915F0B0E94C190AB01BC0187E596E042
:1045B0000E94B5798AE00E943D2DE4C184918F016B
:1045C0000F5F1F4F882321F00E943D2DF801F6CF89
:1045D000E3E6F6E084918F010F5F1F4F882309F413
:1045E000D1C10E943D2DF801F5CF83E50E94562CE4
:1045F000182F882371F00E94232C0E94D39570936A
:104600003B0260933A0221E0672B09F020E02093FF
:104610008B0C80E50E94562C882359F020913A0299
:1046200030913B02232B11F00E94142C80938B0CB1
:10463000A9C11111A7C1E1E2FCE184918F010F5FD3
:104640001F4F882321F00E943D2DF801F6CF809165
:104650008B0C811103C065E073E002C068EF72E06B
:104660008AE896E00E94087A60913A0270913B02D3
:1046700089E796E00E94EF79E5E7F6E084918F0103
:104680000F5F1F4F882309F47DC10E943D2DF80163
:10469000F5CF0E949A6476C184918F010F5F1F4FFE
:1046A000882321F00E943D2DF801F6CFEDE9F6E0D8
:1046B00084918F010F5F1F4F882309F463C10E940B
:1046C0003D2DF801F5CF0E943F4C5CC10E94EF6187
:1046D00059C188E50E94562CB82E89E40E94562CB8
:1046E000A82E882319F00E94F32B1AC0BB20D1F00A
:1046F0000E94232C20E030E048E452E40E948E9493
:1047000020E030E040EA52E40E948F942DEC3CEC33
:104710004CEC5BE30E94C1900E94D395633010F48F
:10472000F62E02C0FF24FA9489E50E94562CE82E4A
:104730008AE40E94562C182F882319F00E94F32B2C
:104740001AC0EE20D1F00E94232C20E030E048E493
:1047500052E40E948E9420E030E04BE952E40E9443
:104760008F942DE038E643ED5BE30E94C1900E94F8
:10477000D395633010F4062F01C00FEF8AE50E9435
:10478000562CC82E811105C081E50E94562CD82ECA
:1047900001C0D12CA11001C010E0212F30E0B110D8
:1047A00002C090E001C09E2D290F311D213031053E
:1047B00019F0E7E2FCE105C0C1101AC0D11018C021
:1047C000F8CF84918F010F5F1F4F882321F00E9443
:1047D0003D2DF801F6CFEBECF6E084918F010F5FF1
:1047E0001F4F882309F4CEC00E943D2DF801F5CF5C
:1047F000F7FE03C0E7E2FCE106C007FF17C0FACFEF
:104800000E943D2DF80184918F010F5F1F4F811190
:10481000F7CFECEAF6E084918F010F5F1F4F8823FA
:1048200009F4B0C00E943D2DF801F5CF0E94232C61
:10483000A02F000FBB0B0F2DFF0C110BDD2091F0F3
:10484000F801EE0FFF1FE00FF11FEA0FFB1FEE0F45
:10485000FF1FEE0FFF1FE353F34F20813181428191
:10486000538103C020E030E0A901F801EE0FFF1FE3
:104870000E0F1F1F0A0F1B1F000F111F000F111F0C
:104880000353134F0E948F94D8016D937D938D93A2
:104890009C93139777C00E94144374C00E943860A1
:1048A00071C083E50E94562C882311F0BDD7812763
:1048B0000E94B45B67C081E080936A060E94823DDB
:1048C00010926A06882309F45DC0E1E2FCE184915C
:1048D0008F010F5F1F4F882321F00E943D2DF801AB
:1048E000F6CFEBEEF6E084918F010F5F1F4F882328
:1048F00009F448C00E943D2DF801F5CF81E0809376
:104900002A0283E50E949D2C882311F08DD702C0D6
:1049100083E5CCD7811136C00E94253D33C00E946B
:10492000D78530C01091FB0380914706181759F0C6
:1049300083E50E949D2C882311F076D702C083E581
:10494000B5D7082F01C001E086E4F7D7882311F01E
:104950007AD703C060E070E0CB01123020F0812FE5
:104960000E949B610FC020E030E040E752E40E94CB
:104970006B95AB01BC01202F812F0E94CD3302C06B
:104980000E94D78510922006E0919C05F0E0ED5240
:10499000FC4F8081882309F4CCC30E94BD33C9C376
:1049A000D8D70E948039EECF609100027091010249
:1049B0006A30710514F069E070E082E092E00E94D4
:1049C000EF7969E070E08DEF91E00E94EF798AE085
:1049D0000E943D2D0C94671661E0812F0E94455482
:1049E0006E2D812F0E941654F12CB701812F0E9449
:1049F0008154193039F6F0928A0CE092890CC2CFBA
:104A000022D7F090F70B0F2D10E0000F111F0D5063
:104A1000144F0E94D395F801718360838F2D0E94FB
:104A2000605A11D720E030E04AEA52E40E945C90DC
:104A300018161CF00E94C44B02C00E948B4B0E94AF
:104A4000728B81E0809302021AAA1BAA1CAA1DAADB
:104A50001EAA1FAA18AE19AE1EA61EAE5CE32396B0
:104A60005FAF23976CE127966FAF279776E42B967D
:104A70007FAF2B97C12CD12C70E8E72EEFEBFE2EE9
:104A8000812C912C54010091F70B10E0F801EE0FEE
:104A9000FF1FED50F44F60817181072E000C880BD1
:104AA000990B0E946290762E672E582E492E262F43
:104AB000372F482F592FB601C7010E945C908823D9
:104AC000F1F0000F111F000F111FF801E551F44F15
:104AD0002081318142815381672D762D852D942D42
:104AE0000E945C90881F8827881F8EA78AAD882324
:104AF00051F09EA5992339F08091020243CF7C2C7E
:104B00006D2C5E2C4F2C0E94B6556B017C01DC0194
:104B1000CB012EA93FA948AD59AD821B930BA40B25
:104B2000B50BB7FD37C0B701A60148515C4F6F4FB9
:104B30007F4F4EAB5FAB68AF79AF0E94DC56E5E6C6
:104B4000F3E084918F010F5F1F4F882319F095D7F1
:104B5000F801F7CF81149104A104B104B9F0D50193
:104B6000C40188519C4FAF4FBF4FBC01CD016C19A0
:104B70007D098E099F0928EE33E040E050E00E9455
:104B80003794CA01B9010E949C2F02C08FE375D7E8
:104B90008AE073D70E94FF360E94B6556093D70310
:104BA0007093D8038093D9039093DA03E091F70BC5
:104BB00054E0E59FF0011124E551F44F208031804D
:104BC000028113819101A801672D762D852D942DE9
:104BD0000E948E949F7781149104A104B10449F43A
:104BE00020E030E040E85FE30E945C9087FF0BC06C
:104BF00008C020E030E040E850E40E94B596181666
:104C000014F4460157016EA56623F1F18AA99BA908
:104C1000ACA9BDA9892B8A2B8B2B61F0D701C601CA
:104C20002AA93BA94CA95DA9821B930BA40BB50B28
:104C3000B7FD2AC09101A8016EAD23967FAD2397E1
:104C400027968FAD27972B969FAD2B970E948E941A
:104C500020E030E040EC5FE30E945C9087FD4CCFA9
:104C6000B701A601405A55416F4F7F4F4AAB5BAB2E
:104C70006CAB7DAB2EAE23963FAE239727960FAF3E
:104C800027972B961FAF2B9780910202882309F458
:104C900033CF81149104A104B10429F4C72CD62C7C
:104CA000E52CF42CF0CE58EEC51A53E0D50AE108F5
:104CB000F108C818D908EA08FB08F7FE1DCFEECFA7
:104CC000C2D50E94D3956739710514F066E970E08A
:104CD0007093EA0B6093E90B0E94165AB4D520E05A
:104CE00030E040EA50E40E94B596181614F40E9491
:104CF0008B4B81E080930202809147068093F70BF3
:104D00001AAA1BAA1CAA1DAA1EAA1FAA18AE19AE6F
:104D10001EA61EAE6CE323966FAF23977CE1279609
:104D20007FAF279786E42B968FAF2B97C12CD12C82
:104D300030E8E32E4FEBF42E812C912C540160913E
:104D4000E90B7091EA0B072E000C880B990B0E945F
:104D50006290162F072F782E692E262F372F482F77
:104D6000592FB601C7010E945C908823D1F0209191
:104D7000E50B3091E60B4091E70B5091E80B612F6A
:104D8000702F872D962D0E945C90881F8827881F82
:104D90008EA79AAD992349F0882339F080910202B9
:104DA000F1CD1C2D0D2D7E2C6F2C0E94B6556B0164
:104DB0007C01DC01CB012EA93FA948AD59AD821B76
:104DC000930BA40BB50BB7FD38C0B701A601485132
:104DD0005C4F6F4F7F4F4EAB5FAB68AF79AF0E94B8
:104DE000DC56E9E6F3E084912F015FEF451A550A9E
:104DF000882319F042D6F201F6CF81149104A10460
:104E0000B104B9F0D501C4018053984FAF4FBF4FE3
:104E1000BC01CD016C197D098E099F0928EE33E094
:104E200040E050E00E943794CA01B9010E949C2FD3
:104E300002C08FE322D68AE020D60E94FF360E946D
:104E4000B6556093D7037093D8038093D90390939A
:104E5000DA032090E50B3090E60B4090E70B509082
:104E6000E80B9101A201612F702F872D962D0E94D2
:104E70008E949F7781149104A104B10449F420E039
:104E800030E040E85FE30E945C9087FF0BC008C001
:104E900020E030E040E450E40E94B596181614F487
:104EA000460157016EA56623F1F18AA99BA9ACA919
:104EB000BDA9892B8A2B8B2B61F0D701C6012AA9AA
:104EC0003BA94CA95DA9821B930BA40BB50BB7FDA5
:104ED0002AC09101A2016EAD23967FAD239727963C
:104EE0008FAD27972B969FAD2B970E948E9420E035
:104EF00030E040EC5FE30E945C9087FD4FCFB7014C
:104F0000A601405A55416F4F7F4F4AAB5BAB6CAB2C
:104F10007DAB2EAE23963FAE239727964FAE2797B5
:104F20002B965FAE2B9780910202882309F436CF2F
:104F300081149104A104B10429F4C12ED02EE72CD0
:104F4000F62CFDCE50EDC51A57E0D50AE108F10860
:104F5000C818D908EA08FB08F7FE20CFEECF0E9458
:104F60003F4C88E5A3D4882319F05F9A1092C403BC
:104F700089E59CD4882319F08A9A1092C5038AE5A2
:104F800095D4882341F080910801809581708093A9
:104F900006011092C60385E489D4882309F4F2CC73
:104FA0000E946C36EFCC0E943F4C0E94C136EACC86
:104FB00088E5C3D4882309F453C00091F70B10E0AF
:104FC00042D4000F111F000F111FF801E45EF34FD0
:104FD000608371838283938310E089E5AED4882354
:104FE00081F00091F70B10E02ED4000F111F000F7D
:104FF000111FF801EC5DF34F60837183828393830B
:1050000010E08AE59AD4882381F00091F70B10E034
:105010001AD4000F111F000F111FF801E45DF34FA8
:105020006083718382839383ADCC112309F4AACC6E
:10503000E1E2FCE184918F010F5F1F4F882319F09B
:105040001CD5F801F7CFE8EEF5E084918F010F5FF2
:105050001F4F882311F40C94A71A0FD5F801F5CF30
:1050600011E0BBCFF0D320E030E040E050EC0E94F4
:105070005C9087FD10C0E7D320E030E040E050E4D2
:105080000E94B596181614F0DED309C060E070E0F7
:1050900080E090E404C060E070E080E090EC20915B
:1050A000BE0C3091BF0C4091C00C5091C10CE091EE
:1050B000C603EE2309F466CC0091DF0B1091E00BE0
:1050C0000E94C1900E94D395600F711F7093E00BF6
:1050D0006093DF0B57CCE1100C949216BAD40C9469
:1050E000A5160E943F4CBC2C60E08C2D0E944554BC
:1050F0000F3FBFEF1B0759F48C2D0E94EE5331E098
:1051000020E0892B09F030E0032F122F05C0013079
:10511000110561F000E010E08B2D0E94EE53801726
:10512000910709F42FCC0E94FF36F6CF01E010E082
:10513000F3CFCB59DF4F0FB6F894DEBF0FBECDBF14
:10514000DF91CF911F910F91FF90EF90DF90CF9063
:10515000BF90AF909F908F907F906F905F904F9097
:105160003F902F9008958FB7F89490911F0620914B
:105170001E06291759F0E92FF0E0E256FA4F208178
:1051800030E09F5F9F7790931F0602C02FEF3FEFA5
:105190008FBFC9010895FF920F931F93CF93DF93A1
:1051A000FC0120812B3319F1D0919D05D430F8F406
:1051B000F62EBC01C0912A060C2F10E0F0E6CF9F1E
:1051C000C001112481509C4F0E94AD97F801ED520F
:1051D000FC4FF082CF5FC43018F4C0932A0602C09F
:1051E00010922A06DF5FD0939D0581E001C080E028
:1051F000DF91CF911F910F91FF900895CF93DF938F
:10520000CDECDCE020E030E0A901688179818A8181
:105210009B810E945C9081111DC020E030E0A901BB
:105220006C817D818E819F810E945C90811112C072
:1052300020E030E0A901688579858A859B850E94F8
:105240005C90811107C02C968CE0C13FD807D1F645
:1052500080E001C081E0DF91CF9108959091110D20
:105260008917A9F0811111C041E05DE06DEF7CE08C
:1052700089EF9CE00E94A27680E08093110D882344
:1052800031F089EF9CE00C94307AB8DFF6CF0895C6
:10529000CF92DF92EF920F931F93CF93DF93CDB70F
:1052A000DEB760970FB6F894DEBF0FBECDBFE090BB
:1052B0004706E9EFFCE080859185A285B3854481AE
:1052C0005581668177810081118122813381098333
:1052D0001A832B833C834D835E836F837887898712
:1052E0009A87AB87BC871D861E861F86188AAE01EB
:1052F000475F5F4FBE016B5F7F4FCE0101960E94FB
:10530000A276CE010D966C0105E112E025E03DE0AC
:10531000AE01475F5F4FBE016B5F7F4F0C970E94EE
:10532000C87A60960FB6F894DEBF0FBECDBFDF918E
:10533000CF911F910F91EF90DF90CF9008954F92F2
:105340005F926F927F928F929F92AF92BF92CF9215
:10535000DF92EF92FF920F931F93CF93DF93CDB71E
:10536000DEB72C970FB6F894DEBF0FBECDBF6D83AE
:105370007E838F83988729873A874B875C8747018D
:10538000580136018091150290911602A0911702E2
:10539000B091180289839A83AB83BC83D601CD90E8
:1053A000DD90ED90FC9020E030E0A901C701B6014E
:1053B0000E945C90811106C0E7E8FAE0C590D590A4
:1053C000E590F490A50194016091010D7091020D9A
:1053D0008091030D9091040D0E945C9087FF11C095
:1053E000C0921502D0921602E0921702F0921802B3
:1053F0008092010D9092020DA092030DB092040DC7
:1054000047DFF301408051806280738020E030E00C
:10541000A901C301B2010E945C90811107C085E51A
:10542000482E542C85E0682E83E4782E4092150295
:105430005092160260921702709218028D819E811E
:10544000AF81B8858093F90C9093FA0CA093FB0C74
:10545000B093FC0C89859A85AB85BC858093FD0C47
:105460009093FE0CA093FF0CB093000D11DFA501EB
:1054700094016091010D7091020D8091030D909146
:10548000040D0E94B59618168CF4C0921502D092A5
:105490001602E0921702F09218028092010D90928B
:1054A000020DA092030DB092040DF2DE0E943F4C5B
:1054B00089819A81AB81BC818093150290931602F9
:1054C000A0931702B09318022C960FB6F894DEBF83
:1054D0000FBECDBFDF91CF911F910F91FF90EF9045
:1054E000DF90CF90BF90AF909F908F907F906F9004
:1054F0005F904F900895CF92DF92EF92FF920F93BB
:105500001F936B01FC01E080F18002811381E9EFC0
:10551000FCE02481358146815781608171818281DF
:1055200093810DDF1F910F91FF90EF90DF90CF904F
:1055300008950F931F93CF93DF9394E0899FE00129
:1055400011248E01025D1C4FFE01E953FC4FDE0168
:10555000A55DB94F2D913D914D915C916081718117
:10556000828193810E948F94F8016083718382838A
:105570009383FE01E95EF74F85919591A591B491D2
:10558000FE01E85BF94F80839183A283B383FE0120
:10559000ED5DF74F85919591A591B491C75EDD4F73
:1055A00088839983AA83BB83DF91CF911F910F9149
:1055B00008950F931F93CF93DF93CDB7DEB72C974A
:1055C0000FB6F894DEBF0FBECDBFE9EFFCE08085DB
:1055D0009185A285B385448155816681778100815B
:1055E00011812281338109831A832B833C834D836C
:1055F0005E836F83788789879A87AB87BC87AE0184
:10560000475F5F4FBE016B5F7F4FCE0101960E94E7
:10561000A27625E03DE0AE01475F5F4FBE016B5FC4
:105620007F4FCE0101960E94A17C2C960FB6F89474
:10563000DEBF0FBECDBFDF91CF911F910F910895B7
:105640002F923F924F925F926F927F929F92AF9272
:10565000BF92CF92DF92EF92FF920F931F93CF935F
:10566000DF93CDB7DEB764970FB6F894DEBF0FBEF9
:10567000CDBF2A013B01902EA12E6901082F10E019
:10568000F801E453F54FE491BB24B3941E160CF4D7
:10569000B12CFF24F39420E030E0A901C301B20152
:1056A0000E94B59618160CF0F12C000F111F000F78
:1056B000111FC8018750934F1C01FC0110821182F9
:1056C0001282138276DFF1014082518262827382FC
:1056D000E090470620E030E0A901692D7A2DC6014F
:1056E0000E945C90811108C0F801E158F54F859146
:1056F0009591A591B49103C0892D9A2DD601898BDE
:105700009A8BAB8BBC8B8091010D9091020DA09177
:10571000030DB091040D4091FD0C5091FE0C609171
:10572000FF0C7091000D0091F90C1091FA0C209172
:10573000FB0C3091FC0C09831A832B833C834D8333
:105740005E836F83788789879A87AB87BC871D863E
:105750001E861F86188AAE01475F5F4FBE016B5FD2
:105760007F4FCE0101960E94A276CE010D966C016C
:105770008E010F5E1F4F25E03DE0AE01475F5F4F9A
:10578000BE016B5F7F4F0C970E94C87A0E943F4C0E
:10579000BF1010929B0564960FB6F894DEBF0FBE43
:1057A000CDBFDF91CF911F910F91FF90EF90DF90D0
:1057B000CF90BF90AF909F907F906F905F904F90F1
:1057C0003F902F900895809140039091410300975E
:1057D00031F04AE050E060E070E00C94B08E60E0A0
:1057E00070E0CB01089580914003909141030097B0
:1057F00031F04AE050E060E070E00C94888D60E0A9
:1058000070E0CB010895EFDF97FD0AC0ECDF6F3F3A
:1058100071058105910509F02CF4E5DF862F0895C7
:1058200080E008958FEF08958091400390914103A7
:10583000892B31F0E8DF91E0811103C090E001C0D5
:1058400091E0892F08950F931F93CF938091400388
:10585000909141030097F1F0FC018F01C1912C2F31
:105860002F7D89F0C53411F0C536B9F7F8011082E3
:1058700060E070E00E94228CF801C083562F472F11
:10588000382F292F0BC060E070E0CF911F910F914E
:105890000C94228C50E040E030E020E0652F742F23
:1058A000832F922FCF911F910F91089581548A31A8
:1058B00008F041C0A82FB0E04091F5035091F603E5
:1058C0006091F7037091F80304C07695679557953A
:1058D00047958A95D2F740FF2EC0E091F40CF091E5
:1058E000F50CA552BC4F8C918823E9F0E80FF11D0F
:1058F000808190ED980F9A3098F08E3211F481816A
:105900000CC08D3211F08B3271F4818190ED980FC3
:105910009A3030F08E3239F4828180538A3018F414
:105920009E2F8F2F02C090E080E0909340038093E1
:10593000410381E0089580E00895B8DF882341F0B5
:1059400081E02091400330914103232B09F480E052
:105950000895AF92BF92CF92DF92EF92FF920F9392
:105960001F93CF93DF938CE4A82E82E0B82E97E3A9
:10597000E92E96E0F92E09EF1CE02EE2C22E23E07C
:10598000D22EC0E0D0E0F50181915F018FDF882346
:1059900019F159DFFE01E65CFC4F2081211104C0A2
:1059A00020913E03222341F0F80120813181428180
:1059B00053810E948F940AC0C330D10539F0F6019B
:1059C00020813181428153810E948E94F70160834E
:1059D0007183828393830AC0F80180819181A281BF
:1059E000B381F70180839183A283B3832196F4E08E
:1059F000EF0EF11C0C5F1F4F84E0C80ED11CC430A9
:105A0000D10509F0C0CF86E498DF8823B9F01BDF09
:105A100020E030E0A9010E94B59618167CF413DF4F
:105A200020E030E040E752E40E946B95609315025D
:105A3000709316028093170290931802DF91CF9112
:105A40001F910F91FF90EF90DF90CF90BF90AF909C
:105A5000089580E1E9EFFCE0A7E3B6E001900D9244
:105A60008A95E1F7089580E1E7E3F6E0A9EFBCE06D
:105A700001900D928A95E1F708959091C00095FFED
:105A8000FCCF8093C6000895BF92CF92DF92EF9231
:105A9000FF920F931F93CF93DF93CDB7DEB76E972F
:105AA0000FB6F894DEBF0FBECDBF60912C0370918E
:105AB0002D036115710551F14DE150E0CE010196C4
:105AC0007C010E9404901E8EF7018F010E191F09A0
:105AD000B190BB2021F19AE0B912F7CF20C0B701F5
