:100000000C94A70D0C94D80D0C94D80D0C94D80D0D
:100010000C94D80D0C94D80D0C94D80D0C94D80DCC
:100020000C94D80D0C94D80D0C94D80D0C94D80DBC
:100030000C94D80D0C94D80D0C94D80D0C94D80DAC
:100040000C94D80D0C94873B0C94D80D0C94D80DBF
:100050000C94D80D0C94D80D0C940D6B0C94AE69C7
:100060000C94D80D0C94D4360C94D80D0C94D80D57
:100070000C94D80D0C94D80D0C94D80D0C94D80D6C
:100080000C94D80D0C94D80D0C94D80D0C94D80D5C
:100090000C94D80D0C94D80D0C94D80D0C94D80D4C
:1000A0000C94D80D0C94D80D0C94D80D0C94D80D3C
:1000B0000C94D80D0C94D80D0C94D80D0C94D80D2C
:1000C0000C94D80D0C94D80D0C94D80D0C94D80D1C
:1000D0000C94D80D0C94D80D0C94D80D0C94D80D0C
:1000E0000C94D80DC667C967B867BC67C26700685B
:1000F000CD67D167D767DB67DF67E567E967ED67DE
:100100000068F367F767FB67936898689D68A7685E
:10011000B1682A69BB68C368CB68D568DF68E968DD
:10012000F86802692A690C6916692069084AD73B90
:100130003BCE016E84BCBFFDC12F3D6C74319ABDB6
:1001400056833DDA3D00C77F11BED9E4BB4C3E91DA
:100150006BAAAABE000000803F05A84CCDB2D44EC9
:10016000B93836A9020C50B9918688083CA6AAAACB
:100170002ABE000000803F004E414E494E4954596E
:10018000494E46CDCCCC3D0AD7233C17B7D1387762
:10019000CC2B329595E6241FB14F0A000020410078
:1001A00000C84200401C4620BCBE4CCA1B0E5AAEC2
:1001B000C59D74434F4D4D554E49434154494F4E93
:1001C0000044525952554E004552524F5253004925
:1001D0004E464F004543484F0047322F4733206279
:1001E000616420706172616D65746572730A0020CC
:1001F0006F6620004D424C2047323920706F696E87
:1002000074200059206F7574206F662072616E67CC
:10021000652028312D33292E0A0058206F7574204F
:100220006F662072616E67652028312D33292E0A92
:10023000004D6573682070726F62696E6720646F2D
:100240006E652E0A005374617274206D65736820A8
:1002500070726F62696E6720776974682022473216
:1002600039205331222066697273742E0A00473296
:10027000380A4732392053320053746174653A208A
:10028000004D65736820626564206C6576656C69F5
:100290006E6720686173206E6F20646174612E0A3E
:1002A0000053206F7574206F662072616E67652041
:1002B00028302D35292E0A004D65736820706F692E
:1002C0006E742063616E6E6F742062652072657358
:1002D0006F6C7665640A002569730025696D2025B9
:1002E0006973002569682025696D202569730025DB
:1002F0006964202569682025696D202569730025BA
:10030000697920256964202569682025696D202583
:100310006973005072696E742074696D653A2000CB
:1003200050726F7465637465642050696E0A00D4FE
:1003300001CF01C801C101B3016F666600444542A7
:1003400055473A004B494C4C45442E20006F6B00FA
:1003500020573A00544845524D414C5F50524F543B
:10036000454354494F4E004155544F5245504F520A
:10037000545F53445F53544154555300454D4552C7
:1003800047454E43595F50415253455200434153F4
:10039000455F4C494748545F4252494748544E458F
:1003A000535300544F47474C455F4C4947485453BB
:1003B00000534F4654574152455F504F57455200E6
:1003C0004255494C445F50455243454E54004C45BC
:1003D00056454C494E475F44415441005A5F505284
:1003E0004F4245004155544F4C4556454C005052E4
:1003F000494E545F4A4F420050524F475245535363
:10040000004155544F5245504F52545F54454D5042
:1004100000564F4C554D45545249430045455052A6
:100420004F4D0053455249414C5F584F4E5F584F16
:100430004646004649524D574152455F4E414D4553
:100440003A4D61726C696E206275676669782D310C
:100450002E312E7820284769746875622920534F01
:10046000555243455F434F44455F55524C3A68747B
:100470007470733A2F2F6769746875622E636F6D9D
:100480002F4D61726C696E4669726D776172652F6E
:100490004D61726C696E2050524F544F434F4C5F08
:1004A00056455253494F4E3A312E30204D41434824
:1004B000494E455F545950453A4A756C696120452B
:1004C000585452554445525F434F554E543A31208B
:1004D000555549443A63656465326132662D34315D
:1004E00061322D343734382D396231322D63353550
:1004F0006336326633363766660A002F2F20007A5D
:100500005F6D61783A2000795F6D61783A200078FC
:100510005F6D696E3A20005265706F7274696E6724
:1005200020656E6473746F70207374617475730AE0
:1005300000205400205200416363656C6572617451
:10054000696F6E3A2050005741524E494E47212064
:100550004C6F77205A204A65726B206D6179206C50
:1005600065616420746F20756E77616E74656420B8
:100570007061757365732E0A002066697273740A60
:10058000005A0059005800486F6D652000546F6F85
:10059000206661722066726F6D2072656665726595
:1005A0006E636520706F696E740A00205A002059CE
:1005B00000580020204D61783A2000205A00205930
:1005C00000580020204D696E3A20004F6E20004FE9
:1005D000666600536F667420656E6473746F707323
:1005E0003A200020466C6F773A200000013637260B
:1005F00003FFFFFF353C3D38FF0FFFFF312E303E3C
:10060000FF13FFFFFF28FF0C080907FFFF1A1C1844
:10061000FFFF2A08440AFF4320643A0020693A0099
:1006200020703A00496E76616C6964206578747256
:10063000756465720A0043290A0061626C65642072
:10064000286D696E2074656D702000436F6C6420A6
:100650006578747275646573206172652000236427
:100660006566696E652044454641554C545F4B6450
:10067000200023646566696E652044454641554CFB
:10068000545F4B69200023646566696E65204445AC
:100690004641554C545F4B702000504944204175F1
:1006A000746F74756E652066696E69736865642120
:1006B0002050757420746865206C617374204B70D1
:1006C0002C204B6920616E64204B6420636F6E7335
:1006D00074616E74732066726F6D2062656C6F77E3
:1006E00020696E746F20436F6E66696775726174FE
:1006F000696F6E2E680A00504944204175746F740A
:10070000756E65206661696C6564212074696D652C
:100710006F75740A00453120544845524D414C20B4
:1007200052554E4157415900546865726D616C20B5
:1007300052756E6177617900453120486561746951
:100740006E67206661696C65640048656174696EF6
:1007500067206661696C6564005049442041757486
:100760006F74756E65206661696C656421205465DF
:100770006D706572617475726520746F6F20686941
:1007800067680A00204B643A2000204B693A200039
:10079000204B703A20000A20436C61737369632018
:1007A000504944200A002054753A2000204B753AE5
:1007B0002000206D61783A2000206D696E3A20009B
:1007C00020643A200020626961733A200050494455
:1007D000204175746F74756E65206661696C65641F
:1007E0002120426164206578747275646572206EA0
:1007F000756D6265720A00504944204175746F74CA
:10080000756E652073746172740A004E6F206361A7
:100810007365206C696768740A004F66660A004653
:1008200061646520486569676874200042656420DA
:100830004C6576656C696E672000434F554C4420CB
:100840004E4F5420454E41424C45204D4553482083
:10085000424544204C4556454C494E470A004D659B
:10086000736820426564204C6576656C2064617411
:10087000613A0A004D65736820706F696E74206379
:10088000616E6E6F74206265207265736F6C766541
:10089000640A004D34323120696E636F7272656391
:1008A0007420706172616D65746572207573616723
:1008B000650A00454550524F4D204F4B0A00416399
:1008C000746976652045787472756465723A2000A3
:1008D000496E76616C6964206578747275646572BE
:1008E0000A00656E7175657565696E672022004C3A
:1008F000696E65204E756D626572206973206E6F3A
:1009000074204C617374204C696E65204E756D6265
:1009100065722B312C204C617374204C696E653AE2
:1009200020004B494C4C45442E20005072696E7497
:1009300065722073746F70706564206475652074CF
:100940006F206572726F72732E204669782074680A
:1009500065206572726F7220616E64207573652008
:100960004D39393920746F20726573746172742E39
:10097000202854656D7065726174757265206973A5
:100980002072657365742E2053657420697420612C
:10099000667465722072657374617274696E67291A
:1009A0000A004E6F20436865636B73756D2077692D
:1009B0007468206C696E65206E756D6265722C209E
:1009C0004C617374204C696E653A200063686563FE
:1009D0006B73756D206D69736D617463682C204C49
:1009E000617374204C696E653A20004D31313000DE
:1009F00020496E76616C69642065787472756465EF
:100A00007220000000000000000000000000000054
:100A100000D2430000CD430080CA43206E6F742093
:100A2000656E74657265642E0A0020573A004D3178
:100A30003133205300205A3A0020423A0020436FBD
:100A4000756E7420413A0020453A00205A3A002041
:100A5000593A00583A003A004361703A0024F4D4FD
:100A60003050C38E20C2A24017828B7011127A912F
:100A70000D816CD90AA861E108C758660761514326
:100A8000061E4B5D05C145A7041A411104093D9896
:100A900003713931034036DB0265339102D430549F
:100AA00002802E1D02632CEE01752AC501B028A01C
:100AB00001102781018F2564012B244B01E0223492
:100AC00001AC211F018D200D01801FFC00841EED53
:100AD00000971DDF00B81CD200E61BC600201BBC1F
:100AE00000641AB200B219A8000A19A0006A189985
:100AF00000D117910040178B00B516840031167E87
:100B000000B31579003A157300C7146F0058146AC2
:100B100000EE1366008813630025135E00C7125BA6
:100B2000006C12570015125400C111510070114F82
:100B30000021114B00D61049008D1047004610448B
:100B40000002104200C00F4000800F3E00420F3CE8
:100B500000060F3B00CB0E3800930E37005C0E35BD
:100B600000270E3400F30D3200C10D3100900D301E
:100B700000600D2E00320D2D00050D2C00D90C2B20
:100B800000AE0C2900850C29005C0C2700350C27D1
:100B9000000E0C2600E80B2400C40B2400A00B233D
:100BA000007D0B23005A0B2100390B2100180B206C
:100BB00000F80A1F00D90A1E00BB0A1E009D0A1D6C
:100BC00000800A1D00630A1C00470A1B002C0A1B38
:100BD00000110A1A00F7091A00DD091900C40919E1
:100BE00000AB091900920917007B09180063091767
:100BF000004C09160036091600200916000A0915CE
:100C000000F5081500E0081400CC081400B808141A
:100C100000A4081400900813007D0812006B08134C
:100C20000058081200460812003408110023081169
:100C3000001208110001081100F0071000E0071071
:100C400000D0071000C0071000B0070F00A1071068
:100C50000091070E0083070F0074070F0065070E51
:100C60000057070E0049070E003B070D002E070E28
:100C70000020070D0013070D0006070D00F9060CF4
:100C800000ED060D00E0060C00D4060C00C8060CB2
:100C900000BC060C00B0060C00A4060B0099060C64
:100CA000008D060B0082060B0077060B006C060B0E
:100CB0000061060A0057060B004C060A0042060AAD
:100CC0000038060A002E060A0024060A001A060A40
:100CD000001006090007060A00FD050900F40509D1
:100CE00000EB050900E2050900D9050900D0050956
:100CF00000C7050900BE050900B5050800AD0508D7
:100D000000A50509009C050800940508008C05084D
:100D100000840508007C050800740508006C0507C0
:100D200000650508005D050700560508004E05072B
:100D30000047050700400508003805070031050792
:100D4000002A050700230507001C050600160507F5
:100D5000000F0507000805060002050700FB040652
:100D600000F5040700EE040600E8040600E20407AC
:100D700000DB040600D5040600CF040600C9040603
:100D800000C3040600BD040600B7040600B1040554
:100D900000AC040600A6040600A00405009B04069F
:100DA0000095040500900406008A040500850405EA
:100DB00000800406007A040500750405007004052F
:100DC000006B04050066040500610405005C040571
:100DD0000057040500520405004D040500480405B1
:100DE00000430405003E0404003A040500350405F0
:100DF00000300404002C040500270404002304052B
:100E0000001E0404001A0404001604050011040462
:100E1000000D040400090405000404040000040497
:100E200000FC030400F8030400F4030400F00304CE
:100E300000EC030400E8030400E4030400E00304FE
:100E400000DC030400D8030400D4030400D003042E
:100E500000CC030400C8030300C503030024F4040A
:100E6000D9201BC40C5C0E9804C4095F026507718D
:100E700001F405F900FB04B30048048700C10369CD
:100E8000005803550003034500BE023A00840231B6
:100E90000053022A002902250004022000E4011C5C
:100EA00000C8011900AF0117009801140084011354
:100EB00000710110006101100051010E0043010D8D
:100EC0000036010B002B010B0020010B001501095E
:100ED000000C01090003010800FB000800F30008F2
:100EE00000EB000700E4000600DE000600D8000664
:100EF00000D2000600CC000500C7000500C20005B6
:100F000000BD000400B9000400B5000400B10004F5
:100F100000AD000400A9000400A5000300A2000326
:100F2000009F0004009B000300980003009500024E
:100F30000093000300900003008D0002008B00036B
:100F40000088000200860002008400030081000285
:100F5000007F0002007D0002007B00020079000299
:100F600000770001007600020074000200720001A8
:100F700000710002006F0002006D0001006C0002B1
:100F8000006A0001006900020067000100660001BC
:100F900000650001006400020062000100610001C0
:100FA00000600001005F0002005D0001005C0001C4
:100FB000005B0001005A00010059000100580001C7
:100FC00000570001005600010055000100540001C7
:100FD00000530000005300010052000100510001C5
:100FE00000500001004F0001004E0000004E0001C3
:100FF000004D0001004C0001004B0000004B0001BF
:10100000004A0001004900010048000000480001BA
:1010100000470001004600000046000100450000B6
:1010200000450001004400010043000000430001AE
:1010300000420000004200010041000000410001A8
:1010400000400001003F0000003F0001003E0000A2
:10105000003E0001003D0000003D0001003C00009A
:10106000003C0000003C0001003B0000003B000190
:10107000003A0000003A0001003900000039000188
:101080000038000000380000003800010037000080
:101090000037000100360000003600000036000175
:1010A000003500000035000000350001003400006C
:1010B0000034000000340001003300000033000061
:1010C0000033000100320000003200000032000155
:1010D000003100000031000000310001003000004C
:1010E0000030000000300001002F0000002F000041
:1010F000002F0000002F0001002E0000002E000035
:10110000002E0001002D0000002D0000002D000029
:10111000002D0001002C0000002C0000002C00001D
:10112000002C0001002B0000002B0000002B000011
:10113000002B0001002A0000002A0000002A000005
:10114000002A0001002900000029000000290000F9
:1011500000290000002900010028000000280000EC
:1011600000280000002800000028000100270000DF
:1011700000270000002700000027000000270001D2
:1011800000260000002600000026000000260000C7
:1011900000260001002500000025000000250000B9
:1011A00000250000002500000025000100240000AB
:1011B000002400000024000000240000002400019E
:1011C0000023000000230000002300000023000093
:1011D0000023000000230000002300010022000083
:1011E0000022000000220000002200000022000077
:1011F0000022000100210000002100000021000069
:101200000021000000210000002100000021000159
:10121000002000000020000000200000002000004E
:10122000002000000020000000200000002000013D
:10123000001F0000001F0000001F0000001F000032
:10124000001F0000001F0000001F0001001E000022
:10125000001E0000001E0000001E00000062656409
:101260000A002C2073797374656D2073746F70702D
:10127000656421204865617465725F49443A2000C5
:101280004265642068656174696E67206661696C97
:1012900065640048656174696E67206661696C65A4
:1012A000640045312048656174696E672066616934
:1012B0006C65640048656174696E67206661696C7D
:1012C00065640020746F6F206C6F6E6720657874A2
:1012D000727573696F6E2070726576656E74656481
:1012E0000A0020636F6C6420657874727573696F8F
:1012F0006E2070726576656E7465640A00290A0056
:101300002062797465733B206372632000536574B7
:1013100074696E67732053746F72656420280029A6
:101320000A002062797465733B2063726320002099
:1013300073746F7265642073657474696E6773206B
:10134000726574726965766564202800202863617F
:101350006C63756C6174656429210A0020213D204D
:1013600000454550524F4D20435243206D69736DE7
:1013700061746368202D202873746F72656429205E
:10138000002053697A653A2000496E6465783A20F6
:1013900000204D61726C696E3D563534290A002873
:1013A000454550524F4D3D00454550524F4D2076DA
:1013B000657273696F6E206D69736D617463682007
:1013C00000000020002300260029002C002F0032FE
:1013D00000000100000301060109010505050507DC
:1013E0000508080808020202020A0A0808040404A0
:1013F00004010101010101010103030303030303CC
:1014000003040707070C0C0C0C0C0C0C0C0202025A
:101410000206060606060606060B0B0B0B0B0B0B4D
:101420000B010210202008081020401020408002EC
:10143000010201080402010102040810204080801A
:10144000402010080402018004020180402010089E
:101450000402010804020101020408102040800176
:101460000204081020408000000A0B02090C0D0E37
:101470000807030401000000000000000000000055
:10148000000000000000000000000000000000005C
:101490000000001211100000000000000000000019
:1014A000000000000000000000000000004B494C5C
:1014B0004C45442E2000202D20496E76616C6964D5
:1014C000206578747275646572206E756D626572E0
:1014D00020210A002020506C616E6E657242756694
:1014E00066657242797465733A20002046726565BC
:1014F000204D656D6F72793A2000436F6D70696C95
:1015000065643A204A756E20313920323031380A0C
:1015100000207C20417574686F723A2056696A61B8
:1015200079205261676861760A00323031382D3097
:10153000312D323000204C61737420557064617419
:1015400065643A20006275676669782D312E312E08
:10155000780A004D61726C696E0020536F66747773
:101560006172652052657365740A00205761746367
:1015700068646F672052657365740A002042726F59
:10158000776E206F75742052657365740A0020456C
:10159000787465726E616C2052657365740A0050D0
:1015A0006F77657255700A0073746172740A002057
:1015B0005A3A0020593A0020583A00656E64737414
:1015C0006F7073206869743A2000526573656E64A9
:1015D0003A20006F6B0020746F6F206C6F6E672075
:1015E000657874727573696F6E2070726576656E5A
:1015F0007465640A0020636F6C642065787472758A
:1016000073696F6E2070726576656E7465640A002A
:10161000627573793A2070617573656420666F72C4
:1016200020696E7075740A00627573793A20706172
:101630007573656420666F7220757365720A006247
:101640007573793A2070726F63657373696E670A98
:10165000004B494C4C45442E20004B494C4C2063D8
:10166000617573656420627920746F6F206D756396
:101670006820696E6163746976652074696D6520A0
:101680002D2063757272656E7420636F6D6D616E6F
:10169000643A20005072696E7465722068616C74DF
:1016A00065642E206B696C6C28292063616C6C6505
:1016B00064210A00000000000000CD430080CA43FE
:1016C0005761726E696E673A20486F6D696E672068
:1016D00042756D702044697669736F72203C2031C9
:1016E0000A000202040000A0400000A04000000028
:1016F000400000D2430000CD430080CA43FF0101F7
:101700004572726F722077726974696E6720746FA8
:1017100020454550524F4D210A00454550524F4DEE
:10172000206461746173697A65206572726F722ECC
:101730000A001000600350012C0190012201D00129
:10174000180110020E0170020401E002FA006003A9
:10175000F0000004E600B004DC00A005D200B006F2
:10176000C8000008BE00A009B400800BAA00D00D7C
:10177000A00090109600C0138C0070178200901B80
:10178000780010206E00C0246400E02D50008035E9
:101790003C00A03A2800A03D1400003F0000A03FFC
:1017A000ECFF4531204572723A204D415854454D69
:1017B00050004572723A204D415854454D502042D8
:1017C0004544004D415854454D5020747269676737
:1017D00065726564004531204572723A204D494E6C
:1017E00054454D50004572723A204D494E54454D76
:1017F0005020424544004D494E54454D502074728E
:101800006967676572656400202F002042403A00D6
:1018100020403A0000002100240027002A002D006B
:101820003000330001010000040107010A0100003B
:101830002200250028002B002E0031003400020178
:101840000000050108010B0148617264636F646563
:10185000642044656661756C742053657474696EA8
:101860006773204C6F616465640A00F4010000F442
:101870000100003200000010270000000048430073
:101880000048430000A04100003442000020430013
:10189000002043F0F77B4400008C4320286D6D2925
:1018A0000020440020490020204D333031205000DA
:1018B0005049442073657474696E67733A0A002056
:1018C0005A00205900202047323920533320580035
:1018D000205A0020204D3432302053004D6573686B
:1018E00020426564204C6576656C696E673A0A0033
:1018F000205A0020590020204D3230362058004810
:101900006F6D65206F66667365743A0A0020450046
:10191000205A002059002058002042002054002066
:10192000204D323035205300416476616E6365642A
:101930003A20533C6D696E5F6665656472617465DB
:101940003E20543C6D696E5F74726176656C5F66B3
:10195000656564726174653E20423C6D696E5F73BB
:1019600065676D656E745F74696D655F75733E2044
:10197000583C6D61785F78795F6A65726B3E205A7A
:101980003C6D61785F7A5F6A65726B3E20453C6DA5
:1019900061785F655F6A65726B3E0A0020540020C3
:1019A000520020204D323034205000416363656C7A
:1019B00065726174696F6E2028756E6974732F7318
:1019C00032293A20503C7072696E745F61636365BE
:1019D0006C3E20523C726574726163745F61636334
:1019E000656C3E20543C74726176656C5F61636324
:1019F000656C3E0A00204500205A00205900202036
:101A00004D3230312058004D6178696D756D20413F
:101A10006363656C65726174696F6E2028756E69A9
:101A200074732F7332293A0A00204500205A00208F
:101A3000590020204D3230332058004D6178696DB7
:101A4000756D206665656472617465732028756EB6
:101A50006974732F73293A0A00204500205A002028
:101A6000590020204D39322058005374657073207E
:101A700070657220756E69743A0A0020204D32300C
:101A8000302044300A0020204D32303020440020E5
:101A900044697361626C65640A0046696C616D65D6
:101AA0006E742073657474696E67733A0020204702
:101AB0003231202020203B000A4D6561737572652C
:101AC0006420706F696E74733A0A005A206F6666FC
:101AD0007365743A20004E756D20582C593A2033A6
:101AE0002C330A00556E6B6E6F776E20636F6D6DD1
:101AF000616E643A2022006563686F3A0000004816
:101B000042000048420000C84100000000457272D7
:101B10006F723A00453120544845524D414C205295
:101B2000554E415741590042454420544845524D75
:101B3000414C2052554E4157415900546865726DD1
:101B4000616C2052756E617761790000E680112426
:101B50001FBECFEFD1E2DEBFCDBF00E00CBF13E070
:101B6000A0E0B2E0E8ECF9E101E00BBF02C00790B1
:101B70000D92A430B107D9F72DE0A4E0B3E001C085
:101B80001D92AD30B207E1F71DE0C7EADDE000E0ED
:101B900006C021970109802FFE010E948D8CC63A54
:101BA000D10780E00807A9F70E94ED7B0C94E28C36
:101BB0000C9400002F923F924F925F926F927F920F
:101BC0008F929F92AF92BF92CF92DF92EF92FF924D
:101BD0000F931F93CF93DF93CDB7DEB7C758D109CB
:101BE0000FB6F894DEBF0FBECDBF21E02093E20B0D
:101BF0008091BD098D3411F40C943116843511F4A3
:101C00000C94BA26873411F00C94FC268091BB0901
:101C10009091BC098C31910509F4BFC594F48430CE
:101C200091053CF4823091056CF597FF24C00C942B
:101C30002D16049711F00C942D160E94F02E0C9482
:101C4000FE268A35910511F40C94251644F48D3145
:101C5000910509F4A7C58A9709F468C7FEC78B35B3
:101C6000910509F4F6C78C35910509F0F6C70E9475
:101C70004B350C94FE268091080281110C940327A9
:101C80000C94FE2620910802222311F40C94FE26C7
:101C900011E0029709F010E00E94282F82E50E94CF
:101CA000E42E882309F43CC10E94612E6B017C0163
:101CB00040909C0C50909D0C60909E0C70909F0CDE
:101CC0002091A00C3091A10C4091A20C5091A30C3A
:101CD0002EA73FA748AB59AB4091FB0B5091FC0B93
:101CE0006091FD0B7091FE0B4AAB5BAB6CAB7DABB7
:101CF0006091FF0B7091000C8091010C9091020C8F
:101D00006AAF7BAF8CAF9DAF20E030E0A901C70187
:101D1000B6010E947185882309F425C5A3019201AB
:101D20006AA97BA98CA99DA90E94718581110DC00A
:101D30002EA53FA548A959A96AAD7BAD8CAD9DAD37
:101D40000E947185882309F40EC520E030E0A901C6
:101D5000C701B6010E947185881F8827881F181344
:101D60000BC080E090E0A0E8BFE32A968CAF9DAF67
:101D7000AEAFBFAF2A970AC020E030E040E85FEB8B
:101D80002A962CAF3DAF4EAF5FAF2A97A3019201C9
:101D90006AA97BA98CA99DA90E94878922966CAF0C
:101DA0007DAF8EAF9FAF22972EA53FA548A959A919
:101DB0006AAD7BAD8CAD9DAD0E94878926966CAFD8
:101DC0007DAF8EAF9FAF269722962CAD3DAD4EAD29
:101DD0005FAD2297CA01B9010E94D6854B015C0113
:101DE00026962CAD3DAD4EAD5FAD2697CA01B9012B
:101DF0000E94D6859B01AC01C501B4010E9488896F
:101E00000E94F38B6EAB7FAB88AF99AF20E030E0E0
:101E100040E05FE30E94D6854B015C01A70196017B
:101E2000C701B6010E94D6856B017C01A501940112
:101E3000C501B4010E94D6859B01AC01C701B60162
:101E40000E9487890E94F38B9B01AC012A966CAD9E
:101E50007DAD8EAD9FAD2A970E94D6854B015C016A
:101E60002AA93BA94CA95DA9C301B2010E94888996
:101E700020E030E040E05FE30E94D6856B017C010A
:101E800026966CAD7DAD8EAD9FAD269790582EA950
:101E90003FA948AD59AD0E94648A9B01AC01C501C0
:101EA000B4010E94D6859B01AC01C701B6010E9416
:101EB0008889A30192010E9487896B017C012AAD68
:101EC0003BAD4CAD5DAD6EA57FA588A999A90E94DB
:101ED000888920E030E040E05FE30E94D6852B0156
:101EE0003C012EA93FA948AD59AD22966CAD7DAD00
:101EF0008EAD9FAD22970E94648A9B01AC01C50103
:101F0000B4010E94D6859B01AC01C301B2010E94BD
:101F100088892EA53FA548A959A90E94878914C080
:101F200089E40E94E42E882329F00E94612E6B012F
:101F30007C0103C0C12CD12C76018AE40E94E42EDE
:101F40008823D9F00E94612E6AAF7BAF8CAF9DAF22
:101F500020E030E0A901C701B6010E94718581111E
:101F60001AC020E030E0A9016AAD7BAD8CAD9DAD1B
:101F70000E94718581110FC0F6C320E030E0A901F5
:101F8000C701B6010E947185882309F4ECC31AAE1B
:101F90001BAE1CAE1DAEB701A60170584EA75FA7C1
:101FA00068AB79AB6AAD7BAD8CAD9DAD90586AAB3B
:101FB0007BAB8CAB9DAB2EA53FA548A959A9CA0107
:101FC000B9010E94D6854B015C012AA93BA94CA905
:101FD0005DA9CA01B9010E94D6859B01AC01C5016A
:101FE000B4010E9488890E94F38B6A966CAF7DAF22
:101FF0008EAF9FAF6A9780919C0C90919D0CA091A1
:102000009E0CB0919F0C8EAB9FABA8AFB9AFA70150
:102010009601BC01CD010E9488892A966CAF7DAFE4
:102020008EAF9FAF2A972091A00C3091A10C4091C8
:10203000A20C5091A30C22962CAF3DAF4EAF5FAFD8
:1020400022972AAD3BAD4CAD5DAD22966CAD7DAD1A
:102050008EAD9FAD22970E9488892E966CAF7DAF82
:102060008EAF9FAF2E974091FB0B5091FC0B609170
:10207000FD0B7091FE0B26964CAF5DAF6EAF7FAF40
:1020800026972A962CAD3DAD4EAD5FAD2A9726968C
:102090006CAD7DAD8EAD9FAD26970E9487896B019B
:1020A0007C016091FF0B7091000C8091010C90916C
:1020B000020C62966CAF7DAF8EAF9FAF62972E968B
:1020C0002CAD3DAD4EAD5FAD2E970E9487894B0183
:1020D0005C018091A40C9091A50CA091A60CB091EC
:1020E000A70C66968CAF9DAFAEAFBFAF66979C0155
:1020F000AD016091030C7091040C8091050C9091DE
:10210000060C0E9487892B013C012091070C30911D
:10211000080C4091090C50910A0C6E962CAF3DAF03
:102120004EAF5FAF6E974091A80C5091A90C609193
:10213000AA0C7091AB0CA6964CAF5DAF6EAF7FAFA3
:10214000A697A70196016EA57FA588A999A90E94C7
:10215000D685A2966CAF7DAF8EAF9FAFA297A5013B
:1021600094016AA97BA98CA99DA90E94D6859B018F
:10217000AC01A2966CAD7DAD8EAD9FADA2970E94D5
:102180008889A2966CAF7DAF8EAF9FAFA297A50155
:1021900094016EA57FA588A999A90E94D6854B01B7
:1021A0005C01A70196016AA97BA98CA99DA90E943F
:1021B000D6859B01AC01C501B4010E948789A29616
:1021C0002CAD3DAD4EAD5FADA2970E94FB896B017A
:1021D0007C0120E030E0A9010E94718587FF0AC0E0
:1021E0002BED3FE049EC50E4C701B6010E9488891D
:1021F0006B017C01112351F02BED3FE049EC50E4E1
:10220000C701B6010E9487896B017C0120E030E0A4
:10221000A901C701B6010E947185811126C02696C9
:102220002CAD3DAD4EAD5FAD26976EA97FA988ADB3
:1022300099AD0E947185811118C062962CAD3DAD9B
:102240004EAD5FAD629722966CAD7DAD8EAD9FAD0C
:1022500022970E947185811108C00BEDC02E0FE0FE
:10226000D02E09ECE02E00E4F02EA70196016A962C
:102270006CAD7DAD8EAD9FAD6A970E94D6854B014A
:102280005C0120E030E0A901C301B2010E94718528
:102290008823C9F0A5019401C501B4010E94D68527
:1022A0004B015C01A3019201C301B2010E94D685DA
:1022B0009B01AC01C501B4010E9488890E94F38B87
:1022C0004B015C0102C0E894B7F82FE632E143E825
:1022D0005AE3C501B4010E94718587FF02C00C94C6
:1022E000FE26C501B4010E94FD8A0E94D18A1B010D
:1022F000672B19F422242394312CB10180E090E063
:102300000E9475854B015C019B01AC01C701B601C0
:102310000E94648A6EAB7FAB88AF99AFA501940130
:10232000C301B2010E94648A6A966CAF7DAF8EAF22
:102330009FAF6A97A6962CAD3DAD4EAD5FADA6970B
:102340006E966CAD7DAD8EAD9FAD6E970E94878908
:10235000A50194010E94648A6E966CAF7DAF8EAF2A
:102360009FAF6E972EA93FA948AD59ADCA01B901DB
:102370000E94D68520E030E040E05FE30E94D685F1
:102380009B01AC0160E070E080E89FE30E948789D8
:1023900062966CAF7DAF8EAF9FAF629766966CAD65
:1023A0007DAD8EAD9FAD669769877A878B879C8759
:1023B000A6968CAD9DADAEADBFADA6978D879E8721
:1023C000AF87B88B6091240270912502072E000C14
:1023D000880B990B0E94778520913E0230913F0235
:1023E00040914002509141020E94D6852AE037ED8B
:1023F00043E25CE30E94D6856AA77BA78CA79DA7D2
:102400000E94A2699B01AC0128533F4F4F4F5F4F81
:1024100066962CAF3DAF4EAF5FAF66974EA45FA4FC
:1024200068A879A841E050E024965FAF4EAF2497AA
:1024300059E15EAF2496AEADBFAD2497A215B305AA
:1024400009F447C10E94FF380E94A269DC01CB0158
:1024500066962CAD3DAD4EAD5FAD6697821B930B7E
:10246000A40BB50BB7FD10C00E94A2699B01AC0183
:1024700028533F4F4F4F5F4F66962CAF3DAF4EAF47
:102480005FAF66970E9409613EAD31503EAF332386
:1024900009F441C062962CAD3DAD4EAD5FAD629783
:1024A0006AA97BA98CA99DA90E94D6856B017C0194
:1024B0002EA93FA948AD59ADB201C3010E94D685EE
:1024C000A70196010E9488897B018C0162962CAD40
:1024D0003DAD4EAD5FAD6297B201C3010E94D6859E
:1024E0004B015C012EA93FA948AD59AD6AA97BA952
:1024F0008CA99DA90E94D6859B01AC01C501B401A0
:102500000E9487892B013C01C701D8018AAB9BAB94
:10251000ACABBDAB53C024964EAD5FAD2497BA01B2
:1025200080E090E00E9475852EA93FA948AD59AD85
:102530000E94D6854B015C010E94618A6B017C017F
:10254000C501B4010E94E98B4B015C01A701960112
:102550006EA57FA588A999A90E94D6852B013C016B
:10256000A50194016AAD7BAD8CAD9DAD0E94D68571
:102570009B01AC01C301B2010E9488892B013C017F
:10258000A50194016EA57FA588A999A90E94D68569
:102590004B015C01A70196016AAD7BAD8CAD9DAD91
:1025A0000E94D6859B01AC01C501B4010E948789B8
:1025B0006AAB7BAB8CAB9DAB59E15EAF9201A301E3
:1025C0002A966CAD7DAD8EAD9FAD2A970E9488890D
:1025D00069837A838B839C832AA93BA94CA95DA933
:1025E0002E966CAD7DAD8EAD9FAD2E970E948889E5
:1025F0006D837E838F8398876A962CAD3DAD4EADFB
:102600005FAD6A9769857A858B859C850E948889EC
:1026100069877A878B879C876E962CAD3DAD4EADD2
:102620005FAD6E976D857E858F8598890E948889BC
:102630006D877E878F87988B80912302882321F076
:10264000CE0101960E945A5FE090E10B1AA21BA2F4
:102650001CA21DA289819A81AB81BC818E8B9F8B2C
:10266000A88FB98F8D819E81AF81B8858A8F9B8F0E
:10267000AC8FBD8F89859A85AB85BC858E8F9F8FEA
:10268000A8A3B9A3AE01425E5F4FBE01665E7F4F55
:10269000CE0146960E941953BE016E5D7F4F6B01BD
:1026A0008E01065D1F4F9E01235F3F4FAE01425ECC
:1026B0005F4F68507109CE0146960E94C75024961C
:1026C0008EAD9FAD2497019624969FAF8EAF249731
:1026D000B1CEE090E10B1EA21FA218A619A6809110
:1026E000FB0B9091FC0BA091FD0BB091FE0B8E8B20
:1026F0009F8BA88FB98F8091FF0B9091000CA091B8
:10270000010CB091020C8A8F9B8FAC8FBD8F809192
:10271000030C9091040CA091050CB091060C8E8FC7
:102720009F8FA8A3B9A3AE01425E5F4FBE01665E54
:102730007F4FCE0146960E941953FE01B6966F0157
:102740008E01065D1F4F27E03CE0AE01425E5F4F09
:10275000BE01665E7F4FCE0146960E94C7500E9422
:10276000B22F0C94FE26EDE0FBE184918F010F5F08
:102770001F4F882321F00E94BC2FF801F6CFE9ED0E
:10278000F1E084918F010F5F1F4F882311F40C94A7
:10279000FE260E94BC2FF801F4CF80E00E94FC3599
:1027A0000C94FE2683E50E94E42E882311F10E94FA
:1027B000412E282F863070F0E1EAF2E084918F01FB
:1027C0000F5F1F4F882311F40C94FE260E94BC2F2C
:1027D000F801F4CF833009F42EC12CF4813069F173
:1027E0008230D9F106C0843009F487C1853009F4FC
:1027F00094C10E946F2B882399F08091B40C8111B1
:1028000003C06AEC72E002C066EC72E089E792E015
:102810000E9405508AE00E94BC2F0E94687782C106
:10282000E1E8F2E084918F010F5F1F4F882309F4E4
:1028300079C10E94BC2FF801F5CF0E941C7810923C
:102840000102109200028EE692E0909305038093BD
:1028500004030E94E92F0C94FE26809100029091BF
:10286000010297FF0EC0E5E4F2E084918F010F5F53
:102870001F4F882311F40C94FE260E94BC2FF801F0
:10288000F4CF0097A1F4809123028093170319825B
:102890001A821B821C821E8A1F8A188E198EBE0104
:1028A0006F5F7F4FCE0146960E944B7B2AC08150BE
:1028B00063E00E94508C80FF02C0291B922F292FB9
:1028C000990F330BF901EE0FFF1FE20FF31FE80F13
:1028D000F11D87FDFA95EE0FFF1FEE0FFF1FED585C
:1028E000F34F8091A40C9091A50CA091A60CB091EF
:1028F000A70C80839183A283B38380911703809375
:1029000023028091000290910102893091050CF020
:1029100068C0109223029C012F5F3F4F3093010249
:102920002093000263E00E94508C80FF03C022E0ED
:10293000291B922F4091A40C5091A50C6091A60CDC
:102940007091A70C4E8B5F8B688F798F19821A82DA
:102950001B821C82F4E08F0290011124A9014B51CB
:10296000534F4A01DA012D913D914D915C91B4E0B4
:102970009B02C0011124FC01EF50F34F5F01608105
:10298000718182819381DE0111966D01E12CF12C20
:1029900000EA10E40E947B7A19821A821B821C8250
:1029A000B601CE0146960E944B7BF5018081918154
:1029B000A281B38180939C0C90939D0CA0939E0C5C
:1029C000B0939F0CF40180819181A281B3818093A7
:1029D000A00C9093A10CA093A20CB093A30C0C9408
:1029E000082780E090E0A0EAB0E48093A40C9093E4
:1029F000A50CA093A60CB093A70C0E94B92B0E9423
:102A0000413B8FEF9FEF9093010280930002E1E33F
:102A1000F2E084918F010F5F1F4F882321F00E9405
:102A2000BC2FF801F6CF81E00E94FC3581E00E94C6
:102A30009F2B0C94082788E50E94E42E8823A1F0A0
:102A40000E94312E1FEF160F1330A8F0EAE1F2E0DA
:102A500084918F010F5F1F4F882311F40C94FE2681
:102A60000E94BC2FF801F4CF88E50E94BC2F0E9481
:102A7000867B0C94FE2689E50E94E42E8823A1F033
:102A80000E94312E0FEF060F0330A8F0E3E0F2E0D2
:102A900084918F010F5F1F4F882311F40C94FE2641
:102AA0000E94BC2FF801F4CF89E50E94BC2F0E9440
:102AB000867B0C94FE268AE50E94E42E8823B1F0E2
:102AC0000E94612E212F30E0F901EE0FFF1FE20F6F
:102AD000F31FE00FF11DEE0FFF1FEE0FFF1FED586C
:102AE000F34F60837183828393831CC08AE50E94C5
:102AF000BC2F0E94867B0C94FE268AE50E94E42E61
:102B00008823A1F30E94612E60936F0C7093700C68
:102B10008093710C9093720C05C080E00E949F2BF3
:102B20000E941C780E947D340C94FE26809108023D
:102B3000882311F40C94FE2689E40E94E42EF82EDA
:102B4000882321F00E94312E062F01C000E08AE484
:102B50000E94E42EE82E882331F00E94312E162F99
:102B6000F11004C00AC010E0FF20B1F0033010F4EF
:102B70000C94DC2AE8EBF2E003C01330D8F70CC069
:102B800084918F010F5F1F4F882311F40C94FE2650
:102B90000E94BC2FF801F4CF0E94A82FFF2091F0D3
:102BA00024E00202F0011124EF50F34F8081918163
:102BB000A281B3818093FB0B9093FC0BA093FD0B40
:102BC000B093FE0BEE2091F034E01302F0011124DB
:102BD000EB51F34F80819181A281B3818093FF0BF0
:102BE0009093000CA093010CB093020C80E50E941E
:102BF000E42E882319F00E94522E03C080E50E9423
:102C0000942E86E40E94E42E8823D9F00E94612E3F
:102C10006B017C0120E030E0A9010E94AE8B181608
:102C200084F420E030E040E752E4C701B6010E949E
:102C3000648A60933E0270933F02809340029093B7
:102C400041020E9496630C94FE26109216030C9487
:102C5000FE26209316030C94FE260E94697B0C949A
:102C6000FE268091BB099091BC098937910509F432
:102C7000DBC50CF090C08936910509F400C30CF057
:102C80004DC08D34910509F439C2CCF48F319105D2
:102C900009F43BC14CF48131910509F42CC14297F0
:102CA00009F4D1C30C94B7268B34910509F40DC2F5
:102CB0000CF00FC28A9709F4CBC10C94B726843567
:102CC000910509F4C0C3E4F48235910509F4B2C357
:102CD0000CF0B4C38135910511F00C94B7260E9415
:102CE0007C6D0E94413B0E94CA6010923209109292
:102CF0003109109234091092330900E010E083C3C7
:102D00008C35910509F4F1C38836910509F4FAC1AF
:102D10008535910511F00C94B726CCC38037910509
:102D200009F4A5C2B4F48C36910509F49CC254F49C
:102D30008A36910509F423C38B36910509F44BC3F8
:102D40000C94B7268E36910509F409C20CF4D9C249
:102D500019C28537910511F40C94FE2674F482375C
:102D6000910509F44BC40CF486C28337910511F028
:102D70000C94B726E3E3F4E047C48737910509F4E0
:102D8000E6C40CF04AC50091B9091091BA0983E074
:102D9000D12C40E09BC48D3241E0940711F40C9497
:102DA00048200CF048C08C3C910509F4CBC5ECF4EC
:102DB0008E3B910509F4DFC254F48C38910509F477
:102DC000BCC28B39910509F475C20C94B726893CB5
:102DD000910509F477C58B3C910509F495C5883CAC
:102DE000910511F00C94B72625C58C3D910511F481
:102DF0000C94971F74F48E3C910509F49CC60CF456
:102E000019C6833D910511F00C94B726E7EFFAE15E
:102E1000BCC7823E910511F40C941120823261E00E
:102E2000960711F40C943B208D3D910511F00C9404
:102E3000B7260C94A41F8C3A71E0970709F49DC63D
:102E400074F58039B1E09B0711F40C94882494F454
:102E50008F32F1E09F0711F40C943D2114F40C948F
:102E6000E9208336914011F00C94B726EDE0FBE1A8
:102E70000C947124843A41E0940711F40C948B244F
:102E8000853A51E0950711F40C9498258A399140C0
:102E900011F00C94B7260E94972C0C94FE26873FC5
:102EA00071E0970711F40C94802694F4853FB1E00B
:102EB0009B0711F40C947A2614F00C947D26843F21
:102EC000914011F00C94B7260E9488590C94FE266C
:102ED0008B3823E0920711F40C94FE26873E33E0F2
:102EE000930711F40C94A626883F914011F00C949E
:102EF000B7260C9483265F988A9880910801817088
:102F00008093060112980C94FE260E94593A2CE3F5
:102F1000C22ED12CE12CF12CA70196010E944C89E4
:102F2000762E672ECA01B901A70196010E944C892D
:102F30006B017C01CA01B90128E130E040E050E0BA
:102F40000E944C894B015C01C9016DE671E00E9451
:102F50005D8C8E010F5F1F4F6115710599F06F92A7
:102F60007F92DF92CF929F928F929F938F937F93C6
:102F70006F938FEF92E09F938F931F930F930E9415
:102F8000428526C0009789F06F927F92DF92CF92A0
:102F90009F928F929F938F938FEE92E09F938F9348
:102FA0001F930F930E94428513C081149104A104C2
:102FB000B104B1F06F927F92DF92CF929F928F9285
:102FC00083EE92E09F938F931F930F930E9442850D
:102FD0000FB6F894DEBF0FBECDBFE7EFFAE123C016
:102FE000C114D104E104F10469F06F927F92DF9281
:102FF000CF928BED92E09F938F931F930F930E943C
:103000004285E6CF6F927F9287ED92E09F938F93F8
:103010001F930F930E9442850F900F900F900F9077
:103020000F900F90DACF84917F012FEFE21AF20A0E
:10303000882321F00E94BC2FF701F5CFB80183E16E
:1030400093E00E9405508AE00E94BC2F0C94FE265B
:1030500083E50E94E42E882311F40C94FE260E943E
:10306000412EE82E80E50E94E42E882339F00E944C
:10307000412E182F87FF03C00C94FE261DE0EBEEB7
:10308000F5E08DE28E0F9491191729F031968E1389
:10309000FACF0C942027EDE0FBE184918F010F5FC4
:1030A0001F4F882321F00E94BC2FF801F6CFE0E2E9
:1030B000F3E084918F010F5F1F4F882311F40C946C
:1030C000FE260E94BC2FF801F4CF0E948D3A0C948A
:1030D000FE2680918309813011F00C94FE2682E057
:1030E000809383090E94A26960937B0970937C0995
:1030F00080937D0990937E090C94FE260E94C63A27
:103100000C94FE2688E690E00E94043281110C9413
:10311000FE268091BE0983FF02C00C94FE2683E543
:103120000E94E42E8823B9F00E94612E0E94CC8A6E
:1031300070934D0C60934C0C80E00E94326D0E94A5
:10314000612E20E030E04AEA52E40E9471851816B0
:1031500014F00E94C63A0E94BD7B0C94FE268EE4B9
:103160000E94E42E882311F40C94FE260E94312E36
:103170006093BB0C7093BC0C8093BD0C9093BE0C01
:103180000C94FE2683E50E94942E882359F083E553
:103190000E94E42E882319F00E94412E01C080E095
:1031A0008093BE09E7EFFAE184918F010F5F1F4F13
:1031B000882321F00E94BC2FF801F6CFEDE3F3E065
:1031C00084918F010F5F1F4F882321F00E94BC2F35
:1031D000F801F6CF8091BE098823A1F10FE2C02E3D
:1031E00003E0D02EE12CF12C20E08091BE0990E08C
:1031F0000E2C02C0959587950A94E2F780FF17C0C0
:10320000BB24B394B20E222319F08CE20E94BC2F8F
:10321000F60125913491F901849189010F5F1F4FC7
:10322000882321F00E94BC2F9801F5CF2B2DFFEFB2
:10323000EF1AFF0A32E0C30ED11C45E0E416F10498
:10324000A1F60CC0E9E3F3E084918F010F5F1F4FFB
:10325000882321F00E94BC2FF801F6CF8AE00E945B
:10326000BC2F0C94FE26109202020C94FE2684E4DD
:1032700093E00E94D9600E94C32F0C94FE2689E639
:1032800090E00E940432811111C0EDE4F3E08491DA
:103290008F010F5F1F4F882321F00E94BC2FF80180
:1032A000F6CF0E948A6A8AE00E94BC2F1092E20B3D
:1032B0000C940A2B83E50E94E42E882311F40C94CD
:1032C000FE260E94412E182F8D3308F01CE3109328
:1032D000EB0B0E94A2696B017C01212F30E0A8EE6C
:1032E000B3E00E947889C60ED71EE81EF91EC09270
:1032F000E70BD092E80BE092E90BF092EA0B0C940A
:10330000FE268DE690E00E94043281110C94FE2688
:103310008091BE0983FF02C00C94FE2683E50E94C3
:10332000E42E8AAF81110C943B2782E50E94E42EA3
:1033300081110C943B270C94FE268091BE0983FFDB
:1033400002C00C94FE2683E50E94E42E882311F42B
:103350000C94FE260E94612E0E94CC8A673971056A
:1033600014F066E970E07093470C6093460C0E947D
:10337000E86C0C94FE260E9499320C94FE2680E59F
:103380000E94E42E882341F00E94412E182F8230A3
:1033900010F00C94FE2601C010E083E50E94E42E9C
:1033A000882329F00E94312E362F272F02C03FEFAD
:1033B00020E0E12FF0E0EE0FFF1FEF5CF64F832FD0
:1033C000922F8F3F910519F010F08FEF90E09183CD
:1033D00080830C94FE2680E50E94E42E882341F031
:1033E0000E94312E6230710510F00C94FE2602C04E
:1033F00060E070E0660F771FFB01EF5CF64F118213
:1034000010820C94FE2662E370E080E090E00E945F
:1034100033690E94FF380F5F1F4F0331110599F781
:1034200062E370E080E090E00E9433690E94FF3820
:103430000C94FE26109215030C94FE2681E08093D6
:1034400015030C94FE2683E50E94E42E8823A1F048
:103450000E94612E20E030E04AE754E40E94D685C5
:103460000E94D18A609327027093280280932902D8
:1034700090932A020C94FE2688E50E94942E8111D6
:103480000C94882889E50E94942E81110C94882838
:103490008AE50E94942E81110C94882885E40E946C
:1034A000942E81110C9488280E94413B0E94CA608E
:1034B0000C94FE2683E50E94942E882311F40C942C
:1034C000FE260E94612E20E030E04AE754E40E948C
:1034D000D6850E94D18A6093E30B7093E40B8093AE
:1034E000E50B9093E60B0C94FE2652E4C52E52E0B9
:1034F000D52E66E5E62E69E0F62E10E0D6018D9118
:103500006D010E94942E882309F46DC0133009F0D8
:1035100063C00E94612E4B015C0120E030E040EA74
:1035200051E40E94718587FF4EC0A501940160910E
:1035300062097091630980916409909165090E9404
:10354000648A2B013C019B01AC01609105097091DB
:10355000060980910709909108090E94D685609319
:103560000509709306098093070990930809A30140
:103570009201609121097091220980912309909113
:1035800024090E94D68560932109709322098093B3
:103590002309909324096091420970914309809115
:1035A0004409909145090E947585A30192010E94EA
:1035B000D6850E94D18A6093420970934309809313
:1035C0004409909345098092620990926309A09200
:1035D0006409B092650907C00E94612EF7016083FB
:1035E0007183828393831F5FF4E0EF0EF11C14302C
:1035F00009F084CF0E9455530C94FE260E94413B53
:103600000E947D340C94FE2684918F010F5F1F4F22
:10361000882321F00E94BC2FF801F6CF60E083E2FE
:1036200094E00E945A3261E08CE194E00E945A32A8
:1036300061E081E194E00E945A3261E081E094E02F
:103640000E945A3260E088EF93E00E945A3261E0B3
:103650008EEE93E00E945A3260E084EE93E00E9486
:103660005A3260E08CED93E00E945A3261E08EECB9
:1036700093E00E945A3260E080EC93E00E945A325C
:1036800060E081EB93E00E945A3260E083EA93E0CD
:103690000E945A3260E08DE893E00E945A3260E066
:1036A0008CE793E00E945A3260E087E693E00E9444
:1036B0005A3261E084E593E00E945A320C94FE266F
:1036C000D8019C91292F2B7F213419F08150C1F70B
:1036D00017C011962C912133C9F7913421F09534FC
:1036E00021F441E002C0DD24D39498012E5F3F4FC6
:1036F00089012F5F3F4FF80190819032C9F3E6CFE7
:10370000442369F0E7EFFAE184917F012FEFE21A99
:10371000F20A882321F00E94BC2FF701F5CFDD20AB
:1037200069F0EBEFF4E084917F013FEFE31AF30AD5
:10373000882321F00E94BC2FF701F5CFD8018D918D
:103740008D01882309F48ACD0E94BC2FF7CFE7E1D1
:10375000F5E084918F010F5F1F4F882321F00E94B5
:10376000BC2FF801F6CFEFE0F5E084918F010F5FF9
:103770001F4F882321F00E94BC2FF801F6CF6599D6
:1037800003C00EEC12E002C003ED12E0F8018191DB
:103790008F01882319F00E94BC2FF8CF8AE00E9485
:1037A000BC2FE7E0F5E084918F010F5F1F4F882366
:1037B00021F00E94BC2FF801F6CF8091030180FD1B
:1037C00003C00EEC12E002C003ED12E0D8018D91AF
:1037D0008D01882319F00E94BC2FF8CF8AE00E9447
:1037E000BC2FEFEFF4E084918F010F5F1F4F882310
:1037F00021F00E94BC2FF801F6CF4A9903C00EECCD
:1038000012E002C003ED12E0F80181918F018823DC
:1038100009F424CD0E94BC2FF7CF81E08093FE0CE9
:103820008093FD0C0C94FE261092FE0C1092FD0C61
:103830000C94FE2688EC90E00E94043281110C94D6
:10384000FE2684E40E94942E8823C1F10E94612EFA
:1038500011E020E030E0A9010E947185811101C0D2
:1038600010E01093F008112349F10E94612EE091BD
:10387000410C24E0E29FF0011124EB50F74F6083EC
:1038800071838283938320E030E0A9016091F50881
:103890007091F6088091F7089091F8080E94718560
:1038A00081110CC080E090E0A0EEBFE38093F508AA
:1038B0009093F608A093F708B093F8080E94C553B8
:1038C0000C94FE2636E4E32E39E0F32E02E412E0F7
:1038D00044E0D42ED00ED8018D918D010E94942EFB
:1038E000882349F00E94612E0E94D18AF7016083EB
:1038F000718382839383F4E0EF0EF11CD012EBCF3F
:103900000E945D500C94FE2695E1E92E99E0F92E77
:1039100002E412E024E0D22ED00ED8018D918D0168
:103920000E94942E882339F00E94612EF701608353
:10393000718382839383F4E0EF0EF11CD012EDCFFC
:103940000C94FE2683E50E94E42E8823A1F00E94B9
:10395000612E60930D0970930E0980930F09909367
:1039600010096093090970930A0980930B099093D9
:103970000C0910E001C011E080E50E94E42E8823CC
:1039800059F00E94612E60930D0970930E09809387
:103990000F099093100910E082E50E94E42E88231D
:1039A00059F00E94612E609311097093120980935F
:1039B00013099093140910E084E50E94E42E8823F3
:1039C00061F00E94612E6093090970930A09809347
:1039D0000B0990930C090C94FE26112311F40C94FE
:1039E000FE2640910D0950910E0960910F097091CA
:1039F000100987E395E00E94CF4F40911109509143
:103A00001209609113097091140984E395E00E94F2
:103A1000CF4F4091090950910A0960910B097091AB
:103A20000C0981E395E00E94CF4F8AE00E94BC2FF1
:103A30000C94FE2683E50E94942E882351F00E9468
:103A4000612E60932D0970932E0980932F09909316
:103A5000300984E50E94942E882351F00E94612E43
:103A60006093290970932A0980932B0990932C095C
:103A700082E40E94942E882351F00E94212E6093AC
:103A8000250970932609809327099093280988E5D2
:103A90000E94942E882351F00E94612E6093F908B1
:103AA0007093FA088093FB089093FC0889E50E94C4
:103AB000942E882351F00E94612E6093FD0870932C
:103AC000FE088093FF08909300098AE50E94942ED7
:103AD0008823F1F00E94612E60930109709302091E
:103AE00080930309909304092DEC3CEC4CEC5DE3CE
:103AF0000E947185181664F0E7E4F5E084918F0167
:103B00000F5F1F4F882321F00E94BC2FF801F6CFD2
:103B100085E40E94942E882311F40C94FE260E94C2
:103B2000612E6093050970930609809307099093AD
:103B300008090C94FE2602E4C02E02E0D02E87E88D
:103B4000E82E89E0F82E10E0D6018D916D010E94DB
:103B5000942E882351F00E94612EF70160837183B7
:103B600082839383812F0E94102C1F5FF4E0EF0E5D
:103B7000F11C133049F70C9492150091F80B0227B1
:103B8000D090F90BD2261091FA0B1227011102C026
:103B9000DD2019F0E7EFFAE114C01111FBCF14EBAF
:103BA000812E16E1912E6CE97CE07FA76EA7CE01F5
:103BB00001965C010DEF16E11C0193E0900F9AABAA
:103BC00053C084917F012FEFE21AF20A882321F07B
:103BD0000E94BC2FF701F5CFE7E8F5E084917F0163
:103BE0003FEFE31AF30A882321F00E94BC2FF7016C
:103BF000F5CF002369F0E5E8F5E084917F014FEF10
:103C0000E41AF40A882321F00E94BC2FF701F5CFB3
:103C1000DD2069F0E3E8F5E084917F015FEFE51ACC
:103C2000F50A882321F00E94BC2FF701F5CF11116E
:103C300003C0E9E7F5E00CC0E1E8F5E084918F010D
:103C40000F5F1F4F8823A9F30E94BC2FF801F6CF06
:103C500084918F010F5F1F4F882311F40C94FE266F
:103C60000E94BC2FF801F4CFF40165917591859104
:103C70009491AEA5BFA5CD90DD90ED90FD90BFA72E
:103C8000AEA7A70196010E9487892B013C0120E085
:103C900030E040EA51EC0E94AE8B87FD10C020E07E
:103CA00030E040EA51E4C301B2010E947185181668
:103CB00034F0F10140825182628273820DC0F801BA
:103CC00084911816B4F7F7FAF094F7F8F094F1012C
:103CD000C082D182E282F382D101CD90DD90ED905D
:103CE000FD901D0120E030E040EA51ECC701B60133
:103CF0000E94AE8B87FF03C0EDE0FBE10BC020E02C
:103D000030E040EA51E4C701B6010E9471851816FF
:103D1000CCF4F2CF84918F010F5F1F4F882321F0E5
:103D20000E94BC2FF801F6CFEDE8F5E084918F01F9
:103D30000F5F1F4F882311F40C94FE260E94BC2FA6
:103D4000F801F4CFB4E08B0E911C0F5F1F4FEAA96E
:103D5000E0138ACFB7E8EB2EB9E0FB2E10E0F501B7
:103D600081919191A191B1915F01F701819391931B
:103D7000A193B1937F01812F0E94102C1F5F1330FC
:103D800071F70E947D340C94FE2684918F010F5FA1
:103D90001F4F882321F00E94BC2FF801F6CF83E546
:103DA0000E94942E882321F00E94522E8093230299
:103DB000E3EDF5E084918F010F5F1F4F882321F021
:103DC0000E94BC2FF801F6CF80912302811103C01D
:103DD000EFECF5E002C0EBECF5E084918F010F5FB2
:103DE0001F4F882321F00E94BC2FF801F6CFE3EC8F
:103DF000F5E084918F010F5F1F4F882321F00E940F
:103E0000BC2FF801F6CF4090060350900703609056
:103E100008037090090320910B0C30910C0C409119
:103E20000D0C50910E0CC301B2010E948889AB01A8
:103E3000BC0181EC95E00E94CF4F80900A039090E6
:103E40000B03A0900C03B0900D0320910F0C309148
:103E5000100C4091110C5091120CC501B4010E943C
:103E60008889AB01BC018EEB95E00E94CF4FC090DA
:103E70000E03D0900F03E0901003F09011032091F7
:103E8000130C3091140C4091150C5091160CC70175
:103E9000B6010E948889AB01BC018BEB95E00E94C2
:103EA000CF4FE3EBF5E084918F010F5F1F4F882325
:103EB00021F00E94BC2FF801F6CF20912B02309107
:103EC0002C0240912D0250912E02C301B2010E949A
:103ED0008889AB01BC0181EB95E00E94CF4F209116
:103EE0002F02309130024091310250913202C501CF
:103EF000B4010E948889AB01BC018EEA95E00E9462
:103F0000CF4F2091330230913402409135025091CD
:103F10003602C701B6010E948889AB01BC018BEA59
:103F200095E00E94CF4F8AE00E94BC2F67C783E5CF
:103F30000E94E42E882309F461C70E94312E7093F9
:103F40002502609324025AC78DED90E00E9404324E
:103F5000811154C783E50E94E42E8823D1F100919A
:103F6000410C10E00E94312E000F111FF801E75F95
:103F7000FD4F718360838091410C90E07C01EE0CD9
:103F8000FF1CEE0CFF1C8701055F1D4F880F991F5A
:103F9000FC01E75FFD4F60817181072E000C880BEB
:103FA000990B0E9477852AE037ED43E25CE30E949B
:103FB000D685F701EF50F74F20813181428153813F
:103FC0000E94D685D8016D937D938D939C93139712
:103FD00015C7E7EFFAE184918F010F5F1F4F882328
:103FE00021F00E94BC2FF801F6CF85E40E94BC2F7F
:103FF0008091410C805D0E94BC2FE091410CF0E06B
:10400000EE0FFF1FE75FFD4F6081718183EE95E04A
:104010000E94EC4F85E20E94BC2F8AE00E94BC2FD8
:10402000EDC680E50E94942E882309F4E7C60E941D
:10403000312E6B017C0183E50E94E42E882321F060
:104040000E94312E8B0102C00FEF1FEFC8010196B5
:10405000039708F0D3C6D7FCD1C69C2DEBEEF5E054
:104060008DE28E0F2491921709F4C8C631968E13F3
:10407000F9CF0C94E22A8AE50E94E42E81110C9477
:10408000AB2883E50E94E42E81110C94AB28B6C6C0
:1040900085E40E94E42E811110C080E50E94942ED8
:1040A000882391F00E94612E60939E0870939F0870
:1040B0008093A0089093A10807C00E94412E8823F6
:1040C00061F3EDE0FBE16EC089E40E94942E882349
:1040D00081F00E94612E2CEA35EC47E25EE30E94FB
:1040E000D68560939A0870939B0880939C08909360
:1040F0009D0884E40E94942E882381F00E94612E02
:104100002CEA35EC47E25EE30E94648A6093A208E1
:104110007093A3088093A4089093A508E7EFFAE1B1
:1041200084918F010F5F1F4F882321F00E94BC2FC5
:10413000F801F6CF40919E0850919F086091A00829
:104140007091A10880E296E00E94CF4F2CEA35ECF6
:1041500047E25EE360919A0870919B0880919C0809
:1041600090919D080E94648AAB01BC018CE196E0AD
:104170000E9474422CEA35EC47E25EE36091A208AB
:104180007091A3088091A4089091A5080E94D685FB
:10419000AB01BC0188E196E00E9474428AE00E9473
:1041A000BC2F2CC684918F010F5F1F4F882321F0F5
:1041B0000E94BC2FF801F6CFE4E2F6E084918F0173
:1041C0000F5F1F4F882309F419C60E94BC2FF80106
:1041D000F5CF83E50E94942E182F882371F00E945A
:1041E000612E0E94CC8A7093100260930F0221E02E
:1041F000672B09F020E02093350980E50E94942E7A
:10420000882359F020910F0230911002232B11F0D6
:104210000E94522E80933509F1C51111EFC5E7EFC9
:10422000FAE184918F010F5F1F4F882321F00E94D4
:10423000BC2FF801F6CF80913509811103C06DEDD7
:1042400072E002C060ED72E08BE496E00E940550DF
:1042500060910F02709110028AE396E00E94EC4F89
:10426000E6E3F6E084918F010F5F1F4F882309F486
:10427000C5C50E94BC2FF801F5CF85E40E94E42E4D
:10428000882321F00E94312E7B0102C0E12CF12C09
:1042900083E40E94E42E882331F00E94312EE096C0
:1042A0006FAFE09704C025E0E0962FAFE09785E57B
:1042B0000E94E42E882319F00E94522E03C085E547
:1042C0000E94942EEC968FAFEC97F7FC07C0812CE0
:1042D000912C56E1A52E53E4B52E06C0812C912CCD
:1042E0004CE8A42E42E4B42E83E50E94E42E8823F9
:1042F00021F00E94612E4B015C01E114F10411F4E4
:104300001092410C0E94A2692B013C01EE2069F041
:10431000EDECF7E084918F010F5F1F4F882309F4C4
:104320006DC50E94BC2FF801F5CFE7EFF7E084914F
:104330007F013FEFE31AF30A882321F00E94BC2F8C
:10434000F701F5CFC501B4010E94CC8A072E000CFD
:10435000880B990B0E9477856AAF7EAB8EAF239650
:104360009FAF2397B301A2014058574C6E4F7F4F28
:10437000CC57DF4F488359836A837B83C458D0402E
:104380000E947C6D8FE780933F0C81E08093020256
:10439000E7964CAE5DAE6EAE7FAEE797C458DF4F8A
:1043A000488259826A827B82CC57D040E3961FAE06
:1043B000E397C058DF4F188219821A821B82C058B7
:1043C000D0402B961FAE2B9750E42F965FAF2F97C0
:1043D0006CE163966FAF639776E4A3967FAFA39784
:1043E00067961FAE67976B961FAE6B976F961FAE63
:1043F0006F97A7961FAEA797AF961CAE1DAE1EAEC9
:104400001FAEAF97AB961CAE1DAE1EAE1FAEAB97E8
:10441000C12CD12C76013FE7832E912CA12CB12CFD
:104420008FE790E0A0E0B0E08AAB9BABACABBDAB5C
:10443000EB961CAE1DAE1EAE1FAEEB9791E0E29662
:104440009FAFE29728961FAE1EAE289710E0212C52
:10445000312C00E0E096AFADE0970A2E000CBB0BCC
:10446000E196BFAFAEAFE19780910202882309F4D5
:10447000E6C00E94A2696EA77FA788AB99AB809126
:104480003E0C882309F4BDC00E942E6E1091480C8A
:104490002090490C30904A0C00914B0C212F322D6A
:1044A000432D502F67966FAD67976B967FAD6B97D7
:1044B0006F968FAD6F97A7969FADA7970E94718556
:1044C00087FF0CC067961FAF67976B962FAE6B97F1
:1044D0006F963FAE6F97A7960FAFA797212F322DFC
:1044E000432D502F2B966FAD2B972F967FAD2F9787
:1044F00063968FAD6397A3969FADA3970E94AE8BF3
:10450000181664F42B961FAF2B972F962FAE2F976C
:1045100063963FAE6397A3960FAFA397E296BFADA6
:10452000E2972AAD3EA94EAD23965FAD2397612F4A
:10453000722D832D902FBB2309F449C00E94AE8BAE
:1045400018160CF05EC04EA55FA568A979A944199C
:10455000550966097709DB01CA0188589341A10909
:10456000B109B7FD4EC08AA99BA9ACA9BDA98819FC
:104570009909AA09BB09B595A79597958795809341
:104580003F0CEB964CAF5DAF6EAF7FAFEB97EAADF4
:104590006796EFAF6797FEA96B96FFAF6B972EAD4F
:1045A0006F962FAF6F9723963FAD2397A7963FAF98
:1045B000A7974EA55FA568A979A9E7964CAF5DAF0F
:1045C0006EAF7FAFE797E2961FAEE2971AC00E94E8
:1045D000718587FF16C08EA59FA5A8A9B9A9E796E2
:1045E0002CAD3DAD4EAD5FADE797821B930BA40B99
:1045F000B50BAC01BD01485853416109710977FF02
:10460000E3C520E030E040EA51E46AAD7EA98EAD1A
:1046100023969FAD23970E9488899B01AC01612F4F
:10462000722D832D902F0E94AE8B18167CF4E9E535
:10463000F7E084918F010F5F1F4F811103C00E942B
:104640007C6DDCC30E94BC2FF801F3CF8EA59FA523
:10465000A8A9B9A9C458DF4F288139814A815B8153
:10466000CC57D040821B930BA40BB50BB7FD9FC05A
:104670000E948A6A8AE00E94BC2F4EA55FA568A9A5
:1046800079A94053584F6F4F7F4FC458DF4F48832D
:1046900059836A837B83CC57D040E3965FADE39721
:1046A000511168C0C058DF4F288139814A815B8130
:1046B000C058D040612F722D832D902F0E94AE8B59
:1046C00018160CF040C020E030E040E050E4612FCC
:1046D000722D832D902F0E948889C058DF4F6883E8
:1046E00079838A839B83C058D0406EA57FA588A913
:1046F00099A96058774C8E4F9F4FCC57DF4F6883F6
:1047000079838A839B83C458D04020E030E040EE18
:1047100050E46AAD7EA98EAD23969FAD23970E948B
:1047200087899B01AC0171E0E3967FAFE397612F2E
:10473000722D832D902F0E94AE8B1816C4F1E39634
:104740001FAEE39734C08EA59FA5A8A9B9A9CC57E1
:10475000DF4F288139814A815B81C458D040821B58
:10476000930BA40BB50BB7FD22C048E357E06AE4F6
:1047700077E01AC020E030E040EA51E46AAD7EA95B
:104780008EAD23969FAD23970E9487899B01AC0134
:10479000612F722D832D902F0E94718587FF07C096
:1047A00045E157E068E277E080E00E9493388EA50B
:1047B0009FA5A8A9B9A9880F991FAA1FBB1FE79693
:1047C0004CAD5DAD6EAD7FADE797841B950BA60B31
:1047D000B70B84199509A609B70981389F44A241EE
:1047E000B10568F0E7EFF6E084918F010F5F1F4F8E
:1047F000882309F424CF0E94BC2FF801F5CF289616
:104800006EAD7FAD2897E1968EAD9FADE19786178F
:1048100097070CF029CEEAE9F6E084918F010F5F4B
:104820001F4F882321F00E94BC2FF801F6CFB7015B
:10483000A60186E896E00E94CF4F8AE00E94BC2F36
:10484000AB964CAD5DAD6EAD7FADAB9782E796E0BC
:104850000E94CF4F8AE00E94BC2FAF964CAD5DAD59
:104860006EAD7FADAF978EE596E00E94CF4F8AE0A8
:104870000E94BC2FEC969FADEC97992309F4BEC221
:10488000C0929E08D0929F08E092A008F092A108E2
:104890002CEA35EC47E25EE3AB966CAD7DAD8EADB8
:1048A0009FADAB970E94D68560939A0870939B0842
:1048B00080939C0890939D082CEA35EC47E25EE3D8
:1048C000AF966CAD7DAD8EAD9FADAF970E94648A03
:1048D0006093A2087093A3088093A4089093A508FE
:1048E0008DC284918F010F5F1F4F882321F00E949A
:1048F000BC2FF801F6CFEBE0F8E084918F010F5F59
:104900001F4F882309F47AC20E94BC2FF801F5CF0B
:104910000E94413B73C283E50E94942E882341F09C
:104920000E94522E082F811105C080E008D702C0D6
:104930000091B40C80919C0C90919D0CA0919E0CC8
:10494000B0919F0C89839A83AB83BC838091A00C28
:104950009091A10CA091A20CB091A30C8D839E8389
:10496000AF83B8878091A40C9091A50CA091A60C60
:10497000B091A70C89879A87AB87BC87B0D688236C
:1049800071F183E40E94942E81118FC528C0930198
:104990004EA95EAD6EA5782D8AA99AAD0E94888930
:1049A00020E030E040E05FE30E94D685A201910163
:1049B0000E9488894B015C012DEB37E346E855EBFB
:1049C0000E94AE8B87FDBDC52DEB37E346E855E36E
:1049D000C501B4010E94718518160CF4B2C586E5B4
:1049E0000E94942E882391F07AD6882379F0EEE500
:1049F000F8E084917F012FEFE21AF20A882321F078
:104A00000E94BC2FF701F5CF0E9468778AE50E94CB
:104A1000942E882321F00E94612E0E94E679802F37
:104A20008ED6011103C0E7EFFAE11CC08091B40CEF
:104A30008111F9CFE7EFFAE184918F010F5F1F4FEA
:104A4000882321F00E94BC2FF801F6CFEAE3F8E0BA
:104A500084918F010F5F1F4F882329F30E94BC2F81
:104A6000F801F6CF84918F010F5F1F4F882321F04B
:104A70000E94BC2FF801F6CF8091B40C811103C0C5
:104A80006AEC72E002C066EC72E08CE298E00E9490
:104A900005508AE00E94BC2FE7EFFAE184918F0174
:104AA0000F5F1F4F882321F00E94BC2FF801F6CF23
:104AB000EFE1F8E084918F010F5F1F4F882321F011
:104AC0000E94BC2FF801F6CFC090B50CD090B60C68
:104AD000E090B70CF090B80C20E030E0A901C701DD
:104AE000B6010E94AE8B18164CF442E0C701B60125
:104AF0000E940C348AE00E94BC2F0CC0EAE1F8E06E
:104B000084918F010F5F1F4F882321F00E94BC2FDB
:104B1000F801F6CF4CE050E06CE97CE0CE01019664
:104B20000E94A18C892B09F469C10E947D3466C161
:104B300088E50E94942EB82E89E40E94942EA82E17
:104B4000882319F00E94312E1AC0BB20D1F00E9498
:104B5000612E20E030E048E452E40E94878920E0A2
:104B600030E040EA52E40E9488892DEC3CEC4CECA9
:104B70005BE30E94D6850E94CC8A633010F4F62E47
:104B800002C0FF24FA9489E50E94942EE82E8AE45C
:104B90000E94942E182F882319F00E94312E1AC0DB
:104BA000EE20D1F00E94612E20E030E048E452E493
:104BB0000E94878920E030E04BE952E40E94888916
:104BC0002DE038E643ED5BE30E94D6850E94CC8A57
:104BD000633010F4062F01C00FEF8AE50E94942E77
:104BE000C82E811105C081E50E94942ED82E01C0E7
:104BF000D12CA11001C010E0212F30E0B11002C073
:104C000090E001C09E2D290F311D2130310519F092
:104C1000EDE0FBE105C0C1101AC0D11018C0F8CFFB
:104C200084918F010F5F1F4F882321F00E94BC2FBA
:104C3000F801F6CFE3E9F8E084918F010F5F1F4F91
:104C4000882309F4DBC00E94BC2FF801F5CFF7FEE2
:104C500003C0EDE0FBE106C007FF17C0FACF0E94DA
:104C6000BC2FF80184918F010F5F1F4F8111F7CF87
:104C7000E4E7F8E084918F010F5F1F4F882309F468
:104C8000BDC00E94BC2FF801F5CF0E94612EA02F5D
:104C9000000FBB0B0F2DFF0C110BDD2091F0F80165
:104CA000EE0FFF1FE00FF11FEA0FFB1FEE0FFF1FBC
:104CB000EE0FFF1FED58F34F208131814281538168
:104CC00003C020E030E0A901F801EE0FFF1F0E0F36
:104CD0001F1F0A0F1B1F000F111F000F111F0D5860
:104CE000134F0E948889D8016D937D938D939C9377
:104CF000139784C00E947C5981C00E940E727EC0AE
:104D00000E94DB2E7BC081E0809370090E942A54B0
:104D100010927009882309F471C0E7EFFAE18491D9
:104D20008F010F5F1F4F882321F00E94BC2FF801D5
:104D3000F6CFE3EBF8E084918F010F5F1F4F8823DC
:104D400009F45CC00E94BC2FF801F5CF81E080938C
:104D5000080283E50E94E42E882311F0A3D702C045
:104D600083E5E2D781114AC00E94566747C00E947E
:104D7000697B44C0F090BB09FF2029F1E7EFFAE11D
:104D800084918F010F5F1F4F882321F00E94BC2F59
:104D9000F801F6CF84E50E94BC2F6F2D70E080E013
:104DA00090E04AE00E949E3180E20E94BC2FE0ED3C
:104DB000F8E084918F010F5F1F4F8823F9F00E9464
:104DC000BC2FF801F6CF1092E10BE7EFFAE18491E6
:104DD0008F010F5F1F4F882321F00E94BC2FF80125
:104DE000F6CF6091E10B70E08EEB98E00E94EC4F03
:104DF0008AE00E94BC2F02C00E94697B1092E20BE5
:104E00000E94396707C40E94282F0E949663F6CF3C
:104E100060910002709101026A30710514F069E03E
:104E200070E084EF91E00E94EC4F69E070E08FEE5B
:104E300091E00E94EC4F8AE00E94BC2F0C949215E6
:104E400061E0812F0E9430686E2D812F0E940168E1
:104E5000F12CB701812F0E946C68173029F4F09271
:104E60003409E0923309CACF193041F6F092320981
:104E7000E0923109C3CF25D70E94CC8A70934D0CA4
:104E800060934C0C80E00E94326D1BD720E030E034
:104E90004AEA52E40E94718518161CF00E94C63A34
:104EA00002C00E948D3A0E94BD7B81E08093020285
:104EB0001AAA1BAA1CAA1DAA1EAA1FAA18AE19AEBE
:104EC0001EA61EAE5CE323965FAF23976CE1279688
:104ED0006FAF279776E42B967FAF2B97C12CD12C01
:104EE000B0E8EB2E1FEBF12E812C912C5401609138
:104EF0004C0C70914D0C072E000C880B990B0E94E6
:104F00007785162F072F782E692E262F372F482FBB
:104F1000592FB601C7010E9471858823D9F02091CD
:104F2000480C3091490C40914A0C50914B0C612F28
:104F3000702F872D962D0E947185881F8827881FC6
:104F40008EA78AAD882351F09EA5992339F08091D0
:104F5000020254CF1C2D0D2D7E2C6F2C0E94A269B5
:104F60006B017C01DC01CB012EA93FA948AD59ADF5
:104F7000821B930BA40BB50BB7FD38C0B701A6017C
:104F800048515C4F6F4F7F4F4EAB5FAB68AF79AF0F
:104F90000E948A6AE0E5F3E084912F015FEF451AF1
:104FA000550A882319F0E8D7F201F6CF811491044D
:104FB000A104B104B9F0D501C40188519C4FAF4F91
:104FC000BF4FBC01CD016C197D098E099F0928EEE8
:104FD00033E040E050E00E944C89CA01B9010E94D0
:104FE000403202C08FE3C8D78AE0C6D70E94096169
:104FF0000E94A26960939709709398098093990918
:1050000090939A092090480C3090490C40904A0C9B
:1050100050904B0C9101A201612F702F872D962D7E
:105020000E9487899F7781149104A104B10449F4F7
:1050300020E030E040E85FE30E94718587FF0BC00D
:1050400008C020E030E040E850E40E94AE8B181623
:1050500014F4460157016EA56623F1F18AA99BA9B4
:10506000ACA9BDA9892B8A2B8B2B61F0D701C60176
:105070002AA93BA94CA95DA9821B930BA40BB50BD4
:10508000B7FD2AC09101A2016EAD23967FAD239793
:1050900027968FAD27972B969FAD2B970E948789D8
:1050A00020E030E040EC5FE30E94718587FD4FCF48
:1050B000B701A601405A55416F4F7F4F4AAB5BABDA
:1050C0006CAB7DAB2EAE23963FAE239727964FAEAB
:1050D00027972B965FAE2B9780910202882309F4C5
:1050E00036CF81149104A104B10429F4C12ED02E2D
:1050F000E72CF62CFCCE58EEC51A53E0D50AE10891
:10510000F108C818D908EA08FB08F7FE20CFEECF4F
:105110000E94413B88E508D6882319F05F9A1092D7
:10512000840989E501D6882319F08A9A10928509A5
:105130008AE5FAD5882341F0809108018095817035
:10514000809306011092860985E4EED5882309F440
:1051500055CE129A53CEB5D520E030E040E050EC69
:105160000E94718587FD10C0ACD520E030E040E0A2
:1051700050E40E94AE8B181614F0A3D509C060E06D
:1051800070E080E090E404C060E070E080E090ECCB
:1051900020915E0930915F09409160095091610949
:1051A000E0918609EE2309F429CE00913C0C109180
:1051B0003D0C0E94D6850E94CC8A600F711F7093AF
:1051C0003D0C60933C0C1ACE28964EAD5FAD2897EF
:1051D000452B09F438C1EB964CAC5DAC6EAC7FACA2
:1051E000EB97480E591E6A1E7B1EEB962CAD3DAD0B
:1051F0004EAD5FADEB97281B390B4A0B5B0BCA0119
:10520000B901A50194010E943D89A30192010E9468
:10521000718C8AA89BA8ACA8BDA8820E931EA41E60
:10522000B51E34E183169104A104B1040CF14CEED7
:1052300084169104A104B1043CF450E8851691044D
:10524000A104B10434F422C0BBEE8B2E912CA12C0E
:10525000B12C8AAA9BAAACAABDAA6EEF70E080E02E
:1052600090E0681979098A099B094B015C0112C019
:1052700084E190E0A0E0B0E08AAB9BABACABBDAB0F
:10528000A4E18A2E912CA12CB12C04C08AAA9BAA3D
:10529000ACAABDAA4AA95BA96CA97DA985EC97E037
:1052A0000E94967BB501A40180EC97E00E94967B5A
:1052B0002B964FAD2B972F965FAD2F9763966FADC3
:1052C0006397A3967FADA39789EB97E00E94CF4F9A
:1052D00067964FAD67976B965FAD6B976F966FADA7
:1052E0006F97A7967FADA79782EB97E00E94CF4F6D
:1052F0002896AEADBFAD289713970CF4A4C0C50196
:10530000B4010E94778520E030E040E850E40E943C
:10531000D6856B017C012B962FAD2B972F963FAD39
:105320002F9763964FAD6397A3965FADA39767964C
:105330006FAD67976B967FAD6B976F968FAD6F97DD
:10534000A7969FADA7970E9487892BED3FE049E480
:1053500050E40E94D68520E030E040E05FE30E9408
:10536000D6859B01AC01C701B6010E94648A6B011E
:105370007C01C301B2010E9477852FE632E143E848
:105380005AE30E94D6852B013C01B701A6018CEAA5
:1053900097E00E94CF4FB301A20186EA97E00E94F6
:1053A000CF4F2AE939E949E15FE3C701B6010E941D
:1053B000D6856B017C019B01AC010E948889A30109
:1053C00092010E94648AAB966CAF7DAF8EAF9FAFA7
:1053D000AB97A3019201C701B6010E94D68520E0D8
:1053E00030E040E05EE30E94D685AF966CAF7DAFC3
:1053F0008EAF9FAFAF97E6E9F7E084913F01BFEF33
:105400006B1A7B0A882319F0B7D5F301F6CFB701E1
:10541000A60180E997E00E94CF4FAB964CAD5DAD01
:105420006EAD7FADAB978AE897E00E94CF4FAF9605
:105430004CAD5DAD6EAD7FADAF9784E897E00E9457
:10544000CF4F8AE099D58AA99BA9ACA9BDA9880D9F
:10545000991DAA1DBB1DB595A79597958795809316
:105460003F0C2896EEADFFAD289731962896FFAFFA
:10547000EEAF2897FAAD2B96FFAF2B972EA92F965C
:105480002FAF2F973EAD63963FAF639723964FADF7
:105490002397A3964FAFA3974EA45FA468A879A8BB
:1054A00051E0E2965FAFE297ACC80BD41B012C0130
:1054B00013E0612C712CF8ECFEAB22EC2EAF1EA693
:1054C000812C38EC3AAB42E44AAF115008F45FCA81
:1054D00063E0F62E812F90E06C01CC0CDD1CC80E31
:1054E000D91EFA94F601EF0DF11DEE0FFF1FEE0F1E
:1054F000FF1FED58F34F9080A180B280E380292DEB
:105500003A2D4B2D5E2D6EA5782D8AA99AAD0E945D
:10551000AE8B181624F49EA68A2CBAAAEAAE292DC0
:105520003A2D4B2D5E2DB3018EA99EAD0E94718543
:1055300087FF04C0692C7A2CBEAAEEAEF110D1CF41
:10554000C4CF80E0FCD013E04CE0D42E115008F41E
:1055500046CAD19EC0011124DC01AD58B34F7D0174
:10556000A501940118966D917D918D919C911B9749
:105570000E948789F7016087718782879387A501D9
:10558000940164817581868197810E948789D70102
:1055900014966D937D938D939C931797A501940119
:1055A0006D917D918D919C910E948789F701608317
:1055B000718382839383CACFE1100C94BD15C8D444
:1055C0000C94D0150E94413BBC2C60E08C2D0E94B5
:1055D00030680F3F5FEF150759F48C2D0E94EA5D8C
:1055E00031E020E0892B09F030E0032F122F05C0B5
:1055F0000130110561F000E010E08B2D0E94EA5DA2
:105600008017910709F4FACB0E940961F6CF01E0F7
:1056100010E0F3CFC957DF4F0FB6F894DEBF0FBECF
:10562000CDBFDF91CF911F910F91FF90EF90DF9051
:10563000CF90BF90AF909F908F907F906F905F9032
:105640004F903F902F9008958FB7F8949091E00B72
:105650002091DF0B291759F0E92FF0E0E15AF44FC0
:10566000208130E09F5F9F779093E00B02C02FEF87
:105670003FEF8FBFC9010895FF920F931F93CF9300
:10568000DF93FC0120812B3319F1D0915D0BD430D5
:10569000F8F4F62EBC01C0915E0B0C2F10E0F0E682
:1056A000CF9FC00111248154964F0E94C28CF801F3
:1056B000ED56F64FF082CF5FC43018F4C0935E0B06
:1056C00002C010925E0BDF5FD0935D0B81E001C0E2
:1056D00080E0DF91CF911F910F91FF900895CF93BC
:1056E000DF93C3E7DCE020E030E0A9016881798145
:1056F0008A819B810E94718581111DC020E030E06C
:10570000A9016C817D818E819F810E9471858111AB
:1057100012C020E030E0A901688579858A859B85E3
:105720000E947185811107C02C968CE0C739D8077B
:10573000D1F680E001C081E0DF91CF910895909192
:10574000B40C8917A9F0811111C044EA5CE060EA49
:105750007CE08CE99CE00E94195380E08093B40CBB
:10576000882331F08CE99CE00C942D50B8DFF6CF03
:105770000895CF92DF92EF920F931F93CF93DF9311
:10578000CDB7DEB760970FB6F894DEBF0FBECDBFC2
:10579000E090E10BECE9FCE080859185A285B38582
:1057A0004481558166817781008111812281338115
:1057B00009831A832B833C834D835E836F837887B1
:1057C00089879A87AB87BC871D861E861F86188AA5
:1057D000AE01475F5F4FBE016B5F7F4FCE01019609
:1057E0000E941953CE010D966C010EE312E028EAD7
:1057F0003CE0AE01475F5F4FBE016B5F7F4F0C9790
:105800000E94C75060960FB6F894DEBF0FBECDBFA2
:10581000DF91CF911F910F91EF90DF90CF9008957E
:105820000F931F93CF93DF9394E0899FE00111249E
:105830008E010A5F1C4FFE01E957F64FDE01A451AD
:10584000B44F2D913D914D915C9160817181828128
:1058500093810E948889F801608371838283938396
:10586000FE01ED5FF54F85919591A591B491FE01F3
:10587000E55FF34F80839183A283B383FE01E15FF1
:10588000F54F85919591A591B491C55DDD4F8883C4
:105890009983AA83BB83DF91CF911F910F910895C4
:1058A0000F931F93CF93DF93CDB7DEB72C970FB62F
:1058B000F894DEBF0FBECDBFECE9FCE0808591859A
:1058C000A285B385448155816681778100811181EC
:1058D0002281338109831A832B833C834D835E832A
:1058E0006F83788789879A87AB87BC87AE01475FCC
:1058F0005F4FBE016B5F7F4FCE0101960E9419532F
:1059000028EA3CE0AE01475F5F4FBE016B5F7F4F0F
:10591000CE0101960E94A0522C960FB6F894DEBFDD
:105920000FBECDBFDF91CF911F910F9108950F93BF
:105930001F9380916F008D7F80936F00E0918608A8
:10594000F091870882899389A489B5898093820818
:1059500090938308A0938408B093850810928708D9
:105960001092860888E893E19093890880938808CC
:105970001092C00C1092BF0C80916F0082608093D7
:105980006F000E94413B2FB7F89440918A085091D4
:105990008B0860918C0870918D0880918E08909191
:1059A0008F08A0919008B09191082FBF8A019B01A8
:1059B000080F191F2A1F3B1FC901B8010E947785D4
:1059C00020E030E040E05FE30E94D68520913F0B6D
:1059D0003091400B4091410B5091420B0E94D68573
:1059E0006093850370938603809387039093880365
:1059F0004FB7F89480918A0890918B08A0918C08F9
:105A0000B0918D0800918E0810918F082091900818
:105A1000309191084FBFBC01CD01601B710B820B0F
:105A2000930B0E94778520E030E040E05FE30E9426
:105A3000D6852091430B3091440B4091450B5091FA
:105A4000460B0E94D6856093890370938A038093E6
:105A50008B0390938C032FB7F89460919208709108
:105A6000930880919408909195082FBF0E947785A4
:105A70002091470B3091480B4091490B50914A0BB4
:105A80000E94D68560938D0370938E0380938F035D
:105A9000909390038091B40C882321F085E893E0E3
:105AA0000E942D508CE0E5E8F3E0ACE9BCE0019009
:105AB0000D928A95E1F71F910F91F2CE2F923F92AE
:105AC0004F925F926F927F929F92AF92BF92CF92CE
:105AD000DF92EF92FF920F931F93CF93DF93CDB797
